{
    "_format": "hh-sol-artifact-1",
    "contractName": "SportsVybe",
    "sourceName": "contracts/SportsVybe.sol",
    "abi": [
        {
            "inputs": [
                {
                    "internalType": "address",
                    "name": "_sportsVybeToken",
                    "type": "address"
                }
            ],
            "stateMutability": "nonpayable",
            "type": "constructor"
        },
        {
            "inputs": [
                {
                    "internalType": "uint256",
                    "name": "",
                    "type": "uint256"
                }
            ],
            "name": "Duplicate_Vote",
            "type": "error"
        },
        {
            "inputs": [
                {
                    "internalType": "uint256",
                    "name": "",
                    "type": "uint256"
                },
                {
                    "internalType": "uint256",
                    "name": "",
                    "type": "uint256"
                }
            ],
            "name": "InsufficientBalance",
            "type": "error"
        },
        {
            "inputs": [
                {
                    "internalType": "uint256",
                    "name": "",
                    "type": "uint256"
                }
            ],
            "name": "Invalid_Team",
            "type": "error"
        },
        {
            "inputs": [
                {
                    "internalType": "uint256",
                    "name": "",
                    "type": "uint256"
                },
                {
                    "internalType": "uint256",
                    "name": "",
                    "type": "uint256"
                }
            ],
            "name": "NotAllowed_For_Challenge",
            "type": "error"
        },
        {
            "inputs": [
                {
                    "internalType": "uint256",
                    "name": "",
                    "type": "uint256"
                },
                {
                    "internalType": "address",
                    "name": "",
                    "type": "address"
                }
            ],
            "name": "NotFoundMembershipRequest",
            "type": "error"
        },
        {
            "inputs": [
                {
                    "internalType": "uint256",
                    "name": "",
                    "type": "uint256"
                }
            ],
            "name": "Team_Unauthorized",
            "type": "error"
        },
        {
            "anonymous": false,
            "inputs": [
                {
                    "indexed": false,
                    "internalType": "uint256",
                    "name": "challenge_id",
                    "type": "uint256"
                }
            ],
            "name": "ChallengePoolClosed",
            "type": "event"
        },
        {
            "anonymous": false,
            "inputs": [
                {
                    "indexed": false,
                    "internalType": "uint256",
                    "name": "challenge_id",
                    "type": "uint256"
                },
                {
                    "indexed": false,
                    "internalType": "uint256",
                    "name": "amount",
                    "type": "uint256"
                },
                {
                    "indexed": false,
                    "internalType": "uint256",
                    "name": "team_id",
                    "type": "uint256"
                },
                {
                    "indexed": false,
                    "internalType": "uint256",
                    "name": "challenged_team_id",
                    "type": "uint256"
                }
            ],
            "name": "ChallengePoolCreated",
            "type": "event"
        },
        {
            "anonymous": false,
            "inputs": [
                {
                    "indexed": false,
                    "internalType": "uint256",
                    "name": "challenge_id",
                    "type": "uint256"
                },
                {
                    "indexed": false,
                    "internalType": "uint256",
                    "name": "team1",
                    "type": "uint256"
                },
                {
                    "indexed": false,
                    "internalType": "uint256",
                    "name": "team2",
                    "type": "uint256"
                }
            ],
            "name": "EventCreated",
            "type": "event"
        },
        {
            "anonymous": false,
            "inputs": [
                {
                    "indexed": false,
                    "internalType": "uint256",
                    "name": "team_id",
                    "type": "uint256"
                }
            ],
            "name": "MembershipRequestSent",
            "type": "event"
        },
        {
            "anonymous": false,
            "inputs": [
                {
                    "indexed": false,
                    "internalType": "uint256",
                    "name": "team_id",
                    "type": "uint256"
                },
                {
                    "indexed": false,
                    "internalType": "address",
                    "name": "user",
                    "type": "address"
                }
            ],
            "name": "NewTeamMate",
            "type": "event"
        },
        {
            "anonymous": false,
            "inputs": [
                {
                    "indexed": true,
                    "internalType": "address",
                    "name": "previousOwner",
                    "type": "address"
                },
                {
                    "indexed": true,
                    "internalType": "address",
                    "name": "newOwner",
                    "type": "address"
                }
            ],
            "name": "OwnershipTransferred",
            "type": "event"
        },
        {
            "anonymous": false,
            "inputs": [
                {
                    "indexed": false,
                    "internalType": "uint256",
                    "name": "team_id",
                    "type": "uint256"
                }
            ],
            "name": "TeamCreated",
            "type": "event"
        },
        {
            "inputs": [
                {
                    "internalType": "uint256",
                    "name": "challenge_id",
                    "type": "uint256"
                },
                {
                    "internalType": "uint256",
                    "name": "team_id",
                    "type": "uint256"
                }
            ],
            "name": "acceptChallenge",
            "outputs": [
                {
                    "internalType": "bool",
                    "name": "",
                    "type": "bool"
                }
            ],
            "stateMutability": "payable",
            "type": "function"
        },
        {
            "inputs": [
                {
                    "internalType": "uint256",
                    "name": "team_id",
                    "type": "uint256"
                }
            ],
            "name": "acceptMembershipTeamRequest",
            "outputs": [],
            "stateMutability": "nonpayable",
            "type": "function"
        },
        {
            "inputs": [
                {
                    "internalType": "uint256",
                    "name": "challenge_id",
                    "type": "uint256"
                }
            ],
            "name": "challengPoolTeamMemberCount",
            "outputs": [
                {
                    "internalType": "uint256",
                    "name": "",
                    "type": "uint256"
                }
            ],
            "stateMutability": "nonpayable",
            "type": "function"
        },
        {
            "inputs": [
                {
                    "internalType": "uint256",
                    "name": "",
                    "type": "uint256"
                },
                {
                    "internalType": "uint256",
                    "name": "",
                    "type": "uint256"
                }
            ],
            "name": "challengPoolTeamMembers",
            "outputs": [
                {
                    "internalType": "address",
                    "name": "",
                    "type": "address"
                }
            ],
            "stateMutability": "view",
            "type": "function"
        },
        {
            "inputs": [
                {
                    "internalType": "uint256",
                    "name": "",
                    "type": "uint256"
                }
            ],
            "name": "challengPoolVote",
            "outputs": [
                {
                    "internalType": "uint256",
                    "name": "",
                    "type": "uint256"
                }
            ],
            "stateMutability": "view",
            "type": "function"
        },
        {
            "inputs": [
                {
                    "internalType": "uint256",
                    "name": "",
                    "type": "uint256"
                }
            ],
            "name": "challengePools",
            "outputs": [
                {
                    "internalType": "uint256",
                    "name": "team1",
                    "type": "uint256"
                },
                {
                    "internalType": "uint256",
                    "name": "team2",
                    "type": "uint256"
                },
                {
                    "internalType": "uint256",
                    "name": "amount",
                    "type": "uint256"
                },
                {
                    "internalType": "bool",
                    "name": "isClosed",
                    "type": "bool"
                },
                {
                    "internalType": "bool",
                    "name": "isCompleted",
                    "type": "bool"
                },
                {
                    "internalType": "uint256",
                    "name": "createdAt",
                    "type": "uint256"
                },
                {
                    "internalType": "uint256",
                    "name": "interval",
                    "type": "uint256"
                },
                {
                    "internalType": "uint256",
                    "name": "team1_count",
                    "type": "uint256"
                },
                {
                    "internalType": "uint256",
                    "name": "team2_count",
                    "type": "uint256"
                }
            ],
            "stateMutability": "view",
            "type": "function"
        },
        {
            "inputs": [
                {
                    "internalType": "bytes",
                    "name": "",
                    "type": "bytes"
                }
            ],
            "name": "checkUpkeep",
            "outputs": [
                {
                    "internalType": "bool",
                    "name": "upkeepNeeded",
                    "type": "bool"
                },
                {
                    "internalType": "bytes",
                    "name": "performData",
                    "type": "bytes"
                }
            ],
            "stateMutability": "view",
            "type": "function"
        },
        {
            "inputs": [
                {
                    "internalType": "uint256",
                    "name": "team_id",
                    "type": "uint256"
                },
                {
                    "internalType": "uint256",
                    "name": "challenged_team_id",
                    "type": "uint256"
                }
            ],
            "name": "createChallengePool",
            "outputs": [
                {
                    "internalType": "uint256",
                    "name": "",
                    "type": "uint256"
                }
            ],
            "stateMutability": "payable",
            "type": "function"
        },
        {
            "inputs": [],
            "name": "createTeam",
            "outputs": [
                {
                    "internalType": "uint256",
                    "name": "",
                    "type": "uint256"
                }
            ],
            "stateMutability": "nonpayable",
            "type": "function"
        },
        {
            "inputs": [
                {
                    "internalType": "uint256",
                    "name": "challenge_id",
                    "type": "uint256"
                },
                {
                    "internalType": "uint256",
                    "name": "team_id",
                    "type": "uint256"
                }
            ],
            "name": "delineChallenge",
            "outputs": [
                {
                    "internalType": "bool",
                    "name": "",
                    "type": "bool"
                }
            ],
            "stateMutability": "nonpayable",
            "type": "function"
        },
        {
            "inputs": [
                {
                    "internalType": "uint256",
                    "name": "team_id",
                    "type": "uint256"
                }
            ],
            "name": "getTeamCount",
            "outputs": [
                {
                    "internalType": "uint256",
                    "name": "",
                    "type": "uint256"
                }
            ],
            "stateMutability": "view",
            "type": "function"
        },
        {
            "inputs": [
                {
                    "internalType": "uint256",
                    "name": "team_id",
                    "type": "uint256"
                }
            ],
            "name": "getTeamMate",
            "outputs": [
                {
                    "internalType": "address[]",
                    "name": "",
                    "type": "address[]"
                }
            ],
            "stateMutability": "view",
            "type": "function"
        },
        {
            "inputs": [
                {
                    "internalType": "uint256",
                    "name": "team_id",
                    "type": "uint256"
                }
            ],
            "name": "getTeamSportsmanship",
            "outputs": [
                {
                    "internalType": "uint256",
                    "name": "",
                    "type": "uint256"
                }
            ],
            "stateMutability": "nonpayable",
            "type": "function"
        },
        {
            "inputs": [
                {
                    "internalType": "uint256",
                    "name": "challenge_id",
                    "type": "uint256"
                },
                {
                    "internalType": "uint256",
                    "name": "team_id",
                    "type": "uint256"
                }
            ],
            "name": "increaseVoteFor",
            "outputs": [
                {
                    "internalType": "uint256",
                    "name": "",
                    "type": "uint256"
                }
            ],
            "stateMutability": "nonpayable",
            "type": "function"
        },
        {
            "inputs": [],
            "name": "owner",
            "outputs": [
                {
                    "internalType": "address",
                    "name": "",
                    "type": "address"
                }
            ],
            "stateMutability": "view",
            "type": "function"
        },
        {
            "inputs": [
                {
                    "internalType": "uint256",
                    "name": "",
                    "type": "uint256"
                }
            ],
            "name": "pending_challenge_pool_ids",
            "outputs": [
                {
                    "internalType": "uint256",
                    "name": "",
                    "type": "uint256"
                }
            ],
            "stateMutability": "view",
            "type": "function"
        },
        {
            "inputs": [
                {
                    "internalType": "bytes",
                    "name": "performData",
                    "type": "bytes"
                }
            ],
            "name": "performUpkeep",
            "outputs": [],
            "stateMutability": "nonpayable",
            "type": "function"
        },
        {
            "inputs": [],
            "name": "renounceOwnership",
            "outputs": [],
            "stateMutability": "nonpayable",
            "type": "function"
        },
        {
            "inputs": [
                {
                    "internalType": "uint256",
                    "name": "team_id",
                    "type": "uint256"
                },
                {
                    "internalType": "address",
                    "name": "user",
                    "type": "address"
                }
            ],
            "name": "sendTeamMembershipRequest",
            "outputs": [
                {
                    "internalType": "bool",
                    "name": "",
                    "type": "bool"
                }
            ],
            "stateMutability": "nonpayable",
            "type": "function"
        },
        {
            "inputs": [],
            "name": "sportsVybeToken",
            "outputs": [
                {
                    "internalType": "contract IERC20",
                    "name": "",
                    "type": "address"
                }
            ],
            "stateMutability": "view",
            "type": "function"
        },
        {
            "inputs": [
                {
                    "internalType": "address",
                    "name": "",
                    "type": "address"
                }
            ],
            "name": "sportsmanship",
            "outputs": [
                {
                    "internalType": "uint256",
                    "name": "",
                    "type": "uint256"
                }
            ],
            "stateMutability": "view",
            "type": "function"
        },
        {
            "inputs": [
                {
                    "internalType": "uint256",
                    "name": "",
                    "type": "uint256"
                }
            ],
            "name": "teamCount",
            "outputs": [
                {
                    "internalType": "uint256",
                    "name": "",
                    "type": "uint256"
                }
            ],
            "stateMutability": "view",
            "type": "function"
        },
        {
            "inputs": [
                {
                    "internalType": "uint256",
                    "name": "",
                    "type": "uint256"
                },
                {
                    "internalType": "uint256",
                    "name": "",
                    "type": "uint256"
                }
            ],
            "name": "teamMembers",
            "outputs": [
                {
                    "internalType": "address",
                    "name": "",
                    "type": "address"
                }
            ],
            "stateMutability": "view",
            "type": "function"
        },
        {
            "inputs": [
                {
                    "internalType": "uint256",
                    "name": "",
                    "type": "uint256"
                },
                {
                    "internalType": "uint256",
                    "name": "",
                    "type": "uint256"
                }
            ],
            "name": "team_membership_request",
            "outputs": [
                {
                    "internalType": "address",
                    "name": "user",
                    "type": "address"
                }
            ],
            "stateMutability": "view",
            "type": "function"
        },
        {
            "inputs": [
                {
                    "internalType": "uint256",
                    "name": "",
                    "type": "uint256"
                }
            ],
            "name": "team_owner",
            "outputs": [
                {
                    "internalType": "address",
                    "name": "",
                    "type": "address"
                }
            ],
            "stateMutability": "view",
            "type": "function"
        },
        {
            "inputs": [
                {
                    "internalType": "uint256",
                    "name": "",
                    "type": "uint256"
                }
            ],
            "name": "team_sportsmanship",
            "outputs": [
                {
                    "internalType": "uint256",
                    "name": "",
                    "type": "uint256"
                }
            ],
            "stateMutability": "view",
            "type": "function"
        },
        {
            "inputs": [
                {
                    "internalType": "uint256",
                    "name": "challenge_id",
                    "type": "uint256"
                }
            ],
            "name": "totalchallengPoolVote",
            "outputs": [
                {
                    "internalType": "uint256",
                    "name": "",
                    "type": "uint256"
                }
            ],
            "stateMutability": "nonpayable",
            "type": "function"
        },
        {
            "inputs": [
                {
                    "internalType": "address",
                    "name": "newOwner",
                    "type": "address"
                }
            ],
            "name": "transferOwnership",
            "outputs": [],
            "stateMutability": "nonpayable",
            "type": "function"
        }
    ],
    "bytecode": "0x60806040526000600d55610379600e556000600f553480156200002157600080fd5b5060405162002c8838038062002c88833981810160405281019062000047919062000192565b620000676200005b620000af60201b60201c565b620000b760201b60201c565b80600160006101000a81548173ffffffffffffffffffffffffffffffffffffffff021916908373ffffffffffffffffffffffffffffffffffffffff1602179055505062000217565b600033905090565b60008060009054906101000a900473ffffffffffffffffffffffffffffffffffffffff169050816000806101000a81548173ffffffffffffffffffffffffffffffffffffffff021916908373ffffffffffffffffffffffffffffffffffffffff1602179055508173ffffffffffffffffffffffffffffffffffffffff168173ffffffffffffffffffffffffffffffffffffffff167f8be0079c531659141344cd1fd0a4f28419497f9722a3daafe3b4186f6b6457e060405160405180910390a35050565b6000815190506200018c81620001fd565b92915050565b600060208284031215620001ab57620001aa620001f8565b5b6000620001bb848285016200017b565b91505092915050565b6000620001d182620001d8565b9050919050565b600073ffffffffffffffffffffffffffffffffffffffff82169050919050565b600080fd5b6200020881620001c4565b81146200021457600080fd5b50565b612a6180620002276000396000f3fe6080604052600436106101b75760003560e01c80636e04ff0d116100ec5780639ca47c9a1161008a578063aa5a0c8211610064578063aa5a0c82146106f3578063c2f79bf514610730578063d858be5d14610759578063f2fde38b14610796576101b7565b80639ca47c9a1461063c578063a35712ff14610679578063a7f1f9e4146106b6576101b7565b80638da5cb5b116100c65780638da5cb5b146105525780638f6dcb161461057d578063958ef061146105c257806396b9ec60146105ff576101b7565b80636e04ff0d146104d2578063715018a6146105105780638a59d84714610527576101b7565b80632c987336116101595780633ec57c5b116101335780633ec57c5b14610404578063420d93c1146104415780634585e33b1461046c57806357c9817f14610495576101b7565b80632c9873361461034d57806332670a8e1461038a5780633ab266a2146103c7576101b7565b8063188e09fa11610195578063188e09fa146102665780631abe0b40146102a35780631bdc3ff9146102e05780632b0a2d2e14610310576101b7565b806308113459146101bc5780630e14e2fc146101f9578063131178ac14610236575b600080fd5b3480156101c857600080fd5b506101e360048036038101906101de919061228e565b6107bf565b6040516101f091906124b4565b60405180910390f35b34801561020557600080fd5b50610220600480360381019061021b9190612261565b6109da565b60405161022d919061255a565b60405180910390f35b610250600480360381019061024b91906122ce565b6109f2565b60405161025d91906124b4565b60405180910390f35b34801561027257600080fd5b5061028d600480360381019061028891906122ce565b610be3565b60405161029a919061255a565b60405180910390f35b3480156102af57600080fd5b506102ca60048036038101906102c591906122ce565b611004565b6040516102d791906124b4565b60405180910390f35b6102fa60048036038101906102f591906122ce565b6110be565b604051610307919061255a565b60405180910390f35b34801561031c57600080fd5b50610337600480360381019061033291906122ce565b61136f565b604051610344919061244e565b60405180910390f35b34801561035957600080fd5b50610374600480360381019061036f9190612261565b6113c6565b604051610381919061255a565b60405180910390f35b34801561039657600080fd5b506103b160048036038101906103ac91906121ba565b611407565b6040516103be919061255a565b60405180910390f35b3480156103d357600080fd5b506103ee60048036038101906103e99190612261565b61141f565b6040516103fb919061244e565b60405180910390f35b34801561041057600080fd5b5061042b60048036038101906104269190612261565b611452565b6040516104389190612492565b60405180910390f35b34801561044d57600080fd5b506104566114f3565b60405161046391906124ff565b60405180910390f35b34801561047857600080fd5b50610493600480360381019061048e9190612214565b611519565b005b3480156104a157600080fd5b506104bc60048036038101906104b791906122ce565b61158f565b6040516104c9919061244e565b60405180910390f35b3480156104de57600080fd5b506104f960048036038101906104f49190612214565b6115dd565b6040516105079291906124cf565b60405180910390f35b34801561051c57600080fd5b506105256116a6565b005b34801561053357600080fd5b5061053c61172e565b604051610549919061255a565b60405180910390f35b34801561055e57600080fd5b50610567611920565b604051610574919061244e565b60405180910390f35b34801561058957600080fd5b506105a4600480360381019061059f9190612261565b611949565b6040516105b9999897969594939291906125fe565b60405180910390f35b3480156105ce57600080fd5b506105e960048036038101906105e491906122ce565b6119b1565b6040516105f6919061244e565b60405180910390f35b34801561060b57600080fd5b5061062660048036038101906106219190612261565b6119ff565b604051610633919061255a565b60405180910390f35b34801561064857600080fd5b50610663600480360381019061065e9190612261565b611a23565b604051610670919061255a565b60405180910390f35b34801561068557600080fd5b506106a0600480360381019061069b9190612261565b611a3b565b6040516106ad919061255a565b60405180910390f35b3480156106c257600080fd5b506106dd60048036038101906106d89190612261565b611a53565b6040516106ea919061255a565b60405180910390f35b3480156106ff57600080fd5b5061071a60048036038101906107159190612261565b611a73565b604051610727919061255a565b60405180910390f35b34801561073c57600080fd5b5061075760048036038101906107529190612261565b611aae565b005b34801561076557600080fd5b50610780600480360381019061077b9190612261565b611d68565b60405161078d919061255a565b60405180910390f35b3480156107a257600080fd5b506107bd60048036038101906107b891906121ba565b611d85565b005b600080600360003373ffffffffffffffffffffffffffffffffffffffff1673ffffffffffffffffffffffffffffffffffffffff16815260200190815260200160002054141561084e576064600360003373ffffffffffffffffffffffffffffffffffffffff1673ffffffffffffffffffffffffffffffffffffffff168152602001908152602001600020819055505b823373ffffffffffffffffffffffffffffffffffffffff166005600083815260200190815260200160002060009054906101000a900473ffffffffffffffffffffffffffffffffffffffff1673ffffffffffffffffffffffffffffffffffffffff16146108f257806040517fbf2fd4e50000000000000000000000000000000000000000000000000000000081526004016108e9919061255a565b60405180910390fd5b6004600085815260200190815260200160002060405180602001604052808573ffffffffffffffffffffffffffffffffffffffff168152509080600181540180825580915050600190039060005260206000200160009091909190915060008201518160000160006101000a81548173ffffffffffffffffffffffffffffffffffffffff021916908373ffffffffffffffffffffffffffffffffffffffff16021790555050507fe96ddc8e1ac943b3b144abc6c8fa24de20b9ea07083e00759d6da54d794df91e846040516109c7919061255a565b60405180910390a1600191505092915050565b60066020528060005260406000206000915090505481565b6000813373ffffffffffffffffffffffffffffffffffffffff166005600083815260200190815260200160002060009054906101000a900473ffffffffffffffffffffffffffffffffffffffff1673ffffffffffffffffffffffffffffffffffffffff1614610a9857806040517fbf2fd4e5000000000000000000000000000000000000000000000000000000008152600401610a8f919061255a565b60405180910390fd5b82600a60008681526020019081526020016000206001015414610af45783836040517f4a2184e1000000000000000000000000000000000000000000000000000000008152600401610aeb92919061259e565b60405180910390fd5b6000600a6000868152602001908152602001600020600201549050803410610b555784816040517fcf479181000000000000000000000000000000000000000000000000000000008152600401610b4c92919061259e565b60405180910390fd5b83600a6000878152602001908152602001600020600101819055507f06168e40fac2576e22d73ab2e9efa79b4e7530dd3dd411ab7d8862d04be798a285600a600088815260200190815260200160002060000154600a600089815260200190815260200160002060010154604051610bcf939291906125c7565b60405180910390a160019250505092915050565b600080600260003373ffffffffffffffffffffffffffffffffffffffff1673ffffffffffffffffffffffffffffffffffffffff168152602001908152602001600020805480602002602001604051908101604052809291908181526020016000905b82821015610c7d5783829060005260206000200160405180602001604052908160008201548152505081526020019060010190610c45565b50505050905060005b8151811015610d055784828281518110610ca357610ca2612915565b5b6020026020010151600001511415610cf257846040517f7d2564f1000000000000000000000000000000000000000000000000000000008152600401610ce9919061255a565b60405180910390fd5b8080610cfd9061286e565b915050610c86565b5082600a6000868152602001908152602001600020600001541415610d57576001600a60008681526020019081526020016000206006016000828254610d4b9190612736565b92505081905550610de6565b82600a6000868152602001908152602001600020600101541415610da8576001600a60008681526020019081526020016000206007016000828254610d9c9190612736565b92505081905550610de5565b826040517fa01bb16a000000000000000000000000000000000000000000000000000000008152600401610ddc919061255a565b60405180910390fd5b5b6000600a600086815260200190815260200160002060070154600a600087815260200190815260200160002060060154610e209190612736565b9050600b600086815260200190815260200160002080549050811415610ff7576000600a600087815260200190815260200160002060010154600a6000888152602001908152602001600020600001541415610f1957600060056000600a60008a815260200190815260200160002060000154815260200190815260200160002060009054906101000a900473ffffffffffffffffffffffffffffffffffffffff169050600060056000600a60008b815260200190815260200160002060010154815260200190815260200160002060009054906101000a900473ffffffffffffffffffffffffffffffffffffffff1690505050610f86565b600a600087815260200190815260200160002060070154600a6000888152602001908152602001600020600601541115610f6b57600a6000878152602001908152602001600020600001549050610f85565b600a60008781526020019081526020016000206001015490505b5b6001600a600088815260200190815260200160002060030160006101000a81548160ff0219169083151502179055507f3299dee1d6fc77e6c880256c8fe0041609bd74cb1e8d2ce5043871ba4bb491b386604051610fe4919061255a565b60405180910390a1809350505050610ffe565b600a925050505b92915050565b6000813373ffffffffffffffffffffffffffffffffffffffff166005600083815260200190815260200160002060009054906101000a900473ffffffffffffffffffffffffffffffffffffffff1673ffffffffffffffffffffffffffffffffffffffff16146110aa57806040517fbf2fd4e50000000000000000000000000000000000000000000000000000000081526004016110a1919061255a565b60405180910390fd5b6110b384611e7d565b600191505092915050565b600080600360003373ffffffffffffffffffffffffffffffffffffffff1673ffffffffffffffffffffffffffffffffffffffff16815260200190815260200160002054141561114d576064600360003373ffffffffffffffffffffffffffffffffffffffff1673ffffffffffffffffffffffffffffffffffffffff168152602001908152602001600020819055505b823373ffffffffffffffffffffffffffffffffffffffff166005600083815260200190815260200160002060009054906101000a900473ffffffffffffffffffffffffffffffffffffffff1673ffffffffffffffffffffffffffffffffffffffff16146111f157806040517fbf2fd4e50000000000000000000000000000000000000000000000000000000081526004016111e8919061255a565b60405180910390fd5b6000600590506000600e549050604051806101200160405280878152602001868152602001348152602001600015158152602001600015158152602001428152602001838152602001600081526020016000815250600a600083815260200190815260200160002060008201518160000155602082015181600101556040820151816002015560608201518160030160006101000a81548160ff02191690831515021790555060808201518160030160016101000a81548160ff02191690831515021790555060a0820151816004015560c0820151816005015560e082015181600601556101008201518160070155905050600c8190806001815401808255809150506001900390600052602060002001600090919091909150556001600e600082825461131f9190612736565b925050819055507f77d5bbaa1959f33c5de7724917a9cb0150bdde1bdbe056cd928f24ec723c5df68134888860405161135b949392919061268b565b60405180910390a180935050505092915050565b6004602052816000526040600020818154811061138b57600080fd5b90600052602060002001600091509150508060000160009054906101000a900473ffffffffffffffffffffffffffffffffffffffff16905081565b6000600a600083815260200190815260200160002060070154600a6000848152602001908152602001600020600601546114009190612736565b9050919050565b60036020528060005260406000206000915090505481565b60056020528060005260406000206000915054906101000a900473ffffffffffffffffffffffffffffffffffffffff1681565b6060600860008381526020019081526020016000208054806020026020016040519081016040528092919081815260200182805480156114e757602002820191906000526020600020905b8160009054906101000a900473ffffffffffffffffffffffffffffffffffffffff1673ffffffffffffffffffffffffffffffffffffffff168152602001906001019080831161149d575b50505050509050919050565b600160009054906101000a900473ffffffffffffffffffffffffffffffffffffffff1681565b6000828281019061152a9190612261565b905042600a600083815260200190815260200160002060050154600a6000848152602001908152602001600020600401546115659190612736565b111561158a576001600f5461157a9190612736565b600f8190555061158981611e7d565b5b505050565b600860205281600052604060002081815481106115ab57600080fd5b906000526020600020016000915091509054906101000a900473ffffffffffffffffffffffffffffffffffffffff1681565b6000606060005b600c8054905081101561169e5742600a6000600c848154811061160a57611609612915565b5b9060005260206000200154815260200190815260200160002060050154600a6000600c858154811061163f5761163e612915565b5b90600052602060002001548152602001908152602001600020600401546116669190612736565b1192508060405160200161167a919061255a565b604051602081830303815290604052915080806116969061286e565b9150506115e4565b509250929050565b6116ae612059565b73ffffffffffffffffffffffffffffffffffffffff166116cc611920565b73ffffffffffffffffffffffffffffffffffffffff1614611722576040517f08c379a00000000000000000000000000000000000000000000000000000000081526004016117199061253a565b60405180910390fd5b61172c6000612061565b565b600080600360003373ffffffffffffffffffffffffffffffffffffffff1673ffffffffffffffffffffffffffffffffffffffff1681526020019081526020016000205414156117bd576064600360003373ffffffffffffffffffffffffffffffffffffffff1673ffffffffffffffffffffffffffffffffffffffff168152602001908152602001600020819055505b60006001600d546117ce9190612736565b9050336005600083815260200190815260200160002060006101000a81548173ffffffffffffffffffffffffffffffffffffffff021916908373ffffffffffffffffffffffffffffffffffffffff160217905550600160076000838152602001908152602001600020819055506064600660008381526020019081526020016000208190555060086000600d548152602001908152602001600020339080600181540180825580915050600190039060005260206000200160009091909190916101000a81548173ffffffffffffffffffffffffffffffffffffffff021916908373ffffffffffffffffffffffffffffffffffffffff1602179055507f015c069c0e6438bd2d98e0c7b6526d4f7596120b3a6ac20fd43f2aa00450b813816040516118f9919061255a565b60405180910390a1600d60008154809291906119149061286e565b91905055508091505090565b60008060009054906101000a900473ffffffffffffffffffffffffffffffffffffffff16905090565b600a6020528060005260406000206000915090508060000154908060010154908060020154908060030160009054906101000a900460ff16908060030160019054906101000a900460ff16908060040154908060050154908060060154908060070154905089565b600b60205281600052604060002081815481106119cd57600080fd5b906000526020600020016000915091509054906101000a900473ffffffffffffffffffffffffffffffffffffffff1681565b600c8181548110611a0f57600080fd5b906000526020600020016000915090505481565b60096020528060005260406000206000915090505481565b60076020528060005260406000206000915090505481565b6000600b6000838152602001908152602001600020805490509050919050565b600060076000838152602001908152602001600020546006600084815260200190815260200160002054611aa7919061278c565b9050919050565b6000600360003373ffffffffffffffffffffffffffffffffffffffff1673ffffffffffffffffffffffffffffffffffffffff168152602001908152602001600020541415611b3c576064600360003373ffffffffffffffffffffffffffffffffffffffff1673ffffffffffffffffffffffffffffffffffffffff168152602001908152602001600020819055505b6000805b6004600084815260200190815260200160002080549050811015611c00573373ffffffffffffffffffffffffffffffffffffffff16600460008581526020019081526020016000208281548110611b9a57611b99612915565b5b9060005260206000200160000160009054906101000a900473ffffffffffffffffffffffffffffffffffffffff1673ffffffffffffffffffffffffffffffffffffffff161415611bed5760019150611c00565b8080611bf89061286e565b915050611b40565b506000811415611c495781336040517fb0cdf7e7000000000000000000000000000000000000000000000000000000008152600401611c40929190612575565b60405180910390fd5b60086000838152602001908152602001600020339080600181540180825580915050600190039060005260206000200160009091909190916101000a81548173ffffffffffffffffffffffffffffffffffffffff021916908373ffffffffffffffffffffffffffffffffffffffff16021790555060016007600084815260200190815260200160002054611cdd9190612736565b600760008481526020019081526020016000208190555060646006600084815260200190815260200160002054611d149190612736565b60066000848152602001908152602001600020819055507facf469d13776cbb2c2ad5f2817a7797650091c8559a1d3bba51d3ef280b72c778233604051611d5c929190612575565b60405180910390a15050565b600060076000838152602001908152602001600020549050919050565b611d8d612059565b73ffffffffffffffffffffffffffffffffffffffff16611dab611920565b73ffffffffffffffffffffffffffffffffffffffff1614611e01576040517f08c379a0000000000000000000000000000000000000000000000000000000008152600401611df89061253a565b60405180910390fd5b600073ffffffffffffffffffffffffffffffffffffffff168173ffffffffffffffffffffffffffffffffffffffff161415611e71576040517f08c379a0000000000000000000000000000000000000000000000000000000008152600401611e689061251a565b60405180910390fd5b611e7a81612061565b50565b6000600a6000838152602001908152602001600020604051806101200160405290816000820154815260200160018201548152602001600282015481526020016003820160009054906101000a900460ff161515151581526020016003820160019054906101000a900460ff16151515158152602001600482015481526020016005820154815260200160068201548152602001600782015481525050905060018160600190151590811515815250506000600560008360000151815260200190815260200160002060009054906101000a900473ffffffffffffffffffffffffffffffffffffffff169050600160009054906101000a900473ffffffffffffffffffffffffffffffffffffffff1673ffffffffffffffffffffffffffffffffffffffff1663a9059cbb8284604001516040518363ffffffff1660e01b8152600401611fca929190612469565b602060405180830381600087803b158015611fe457600080fd5b505af1158015611ff8573d6000803e3d6000fd5b505050506040513d601f19601f8201168201806040525081019061201c91906121e7565b507f3299dee1d6fc77e6c880256c8fe0041609bd74cb1e8d2ce5043871ba4bb491b38360405161204c919061255a565b60405180910390a1505050565b600033905090565b60008060009054906101000a900473ffffffffffffffffffffffffffffffffffffffff169050816000806101000a81548173ffffffffffffffffffffffffffffffffffffffff021916908373ffffffffffffffffffffffffffffffffffffffff1602179055508173ffffffffffffffffffffffffffffffffffffffff168173ffffffffffffffffffffffffffffffffffffffff167f8be0079c531659141344cd1fd0a4f28419497f9722a3daafe3b4186f6b6457e060405160405180910390a35050565b600081359050612134816129e6565b92915050565b600081519050612149816129fd565b92915050565b60008083601f84011261216557612164612949565b5b8235905067ffffffffffffffff81111561218257612181612944565b5b60208301915083600182028301111561219e5761219d61294e565b5b9250929050565b6000813590506121b481612a14565b92915050565b6000602082840312156121d0576121cf612958565b5b60006121de84828501612125565b91505092915050565b6000602082840312156121fd576121fc612958565b5b600061220b8482850161213a565b91505092915050565b6000806020838503121561222b5761222a612958565b5b600083013567ffffffffffffffff81111561224957612248612953565b5b6122558582860161214f565b92509250509250929050565b60006020828403121561227757612276612958565b5b6000612285848285016121a5565b91505092915050565b600080604083850312156122a5576122a4612958565b5b60006122b3858286016121a5565b92505060206122c485828601612125565b9150509250929050565b600080604083850312156122e5576122e4612958565b5b60006122f3858286016121a5565b9250506020612304858286016121a5565b9150509250929050565b600061231a8383612326565b60208301905092915050565b61232f816127bd565b82525050565b61233e816127bd565b82525050565b600061234f826126e0565b6123598185612703565b9350612364836126d0565b8060005b8381101561239557815161237c888261230e565b9750612387836126f6565b925050600181019050612368565b5085935050505092915050565b6123ab816127cf565b82525050565b60006123bc826126eb565b6123c68185612714565b93506123d681856020860161283b565b6123df8161295d565b840191505092915050565b6123f381612805565b82525050565b6000612406602683612725565b91506124118261296e565b604082019050919050565b6000612429602083612725565b9150612434826129bd565b602082019050919050565b612448816127fb565b82525050565b60006020820190506124636000830184612335565b92915050565b600060408201905061247e6000830185612335565b61248b602083018461243f565b9392505050565b600060208201905081810360008301526124ac8184612344565b905092915050565b60006020820190506124c960008301846123a2565b92915050565b60006040820190506124e460008301856123a2565b81810360208301526124f681846123b1565b90509392505050565b600060208201905061251460008301846123ea565b92915050565b60006020820190508181036000830152612533816123f9565b9050919050565b600060208201905081810360008301526125538161241c565b9050919050565b600060208201905061256f600083018461243f565b92915050565b600060408201905061258a600083018561243f565b6125976020830184612335565b9392505050565b60006040820190506125b3600083018561243f565b6125c0602083018461243f565b9392505050565b60006060820190506125dc600083018661243f565b6125e9602083018561243f565b6125f6604083018461243f565b949350505050565b600061012082019050612614600083018c61243f565b612621602083018b61243f565b61262e604083018a61243f565b61263b60608301896123a2565b61264860808301886123a2565b61265560a083018761243f565b61266260c083018661243f565b61266f60e083018561243f565b61267d61010083018461243f565b9a9950505050505050505050565b60006080820190506126a0600083018761243f565b6126ad602083018661243f565b6126ba604083018561243f565b6126c7606083018461243f565b95945050505050565b6000819050602082019050919050565b600081519050919050565b600081519050919050565b6000602082019050919050565b600082825260208201905092915050565b600082825260208201905092915050565b600082825260208201905092915050565b6000612741826127fb565b915061274c836127fb565b9250827fffffffffffffffffffffffffffffffffffffffffffffffffffffffffffffffff03821115612781576127806128b7565b5b828201905092915050565b6000612797826127fb565b91506127a2836127fb565b9250826127b2576127b16128e6565b5b828204905092915050565b60006127c8826127db565b9050919050565b60008115159050919050565b600073ffffffffffffffffffffffffffffffffffffffff82169050919050565b6000819050919050565b600061281082612817565b9050919050565b600061282282612829565b9050919050565b6000612834826127db565b9050919050565b60005b8381101561285957808201518184015260208101905061283e565b83811115612868576000848401525b50505050565b6000612879826127fb565b91507fffffffffffffffffffffffffffffffffffffffffffffffffffffffffffffffff8214156128ac576128ab6128b7565b5b600182019050919050565b7f4e487b7100000000000000000000000000000000000000000000000000000000600052601160045260246000fd5b7f4e487b7100000000000000000000000000000000000000000000000000000000600052601260045260246000fd5b7f4e487b7100000000000000000000000000000000000000000000000000000000600052603260045260246000fd5b600080fd5b600080fd5b600080fd5b600080fd5b600080fd5b6000601f19601f8301169050919050565b7f4f776e61626c653a206e6577206f776e657220697320746865207a65726f206160008201527f6464726573730000000000000000000000000000000000000000000000000000602082015250565b7f4f776e61626c653a2063616c6c6572206973206e6f7420746865206f776e6572600082015250565b6129ef816127bd565b81146129fa57600080fd5b50565b612a06816127cf565b8114612a1157600080fd5b50565b612a1d816127fb565b8114612a2857600080fd5b5056fea2646970667358221220253fb041e02ffc1059a279412a84041ca9057edd49c33e562d007869735812a164736f6c63430008070033",
    "linkReferences": {},
    "deployedLinkReferences": {}
}