{
    "_format": "hh-sol-artifact-1",
    "contractName": "SportsVybe",
    "sourceName": "contracts/SportsVybe.sol",
    "abi": [
        {
            "inputs": [
                {
                    "internalType": "address",
                    "name": "_sportsVybeToken",
                    "type": "address"
                }
            ],
            "stateMutability": "nonpayable",
            "type": "constructor"
        },
        {
            "inputs": [
                {
                    "internalType": "uint256",
                    "name": "",
                    "type": "uint256"
                }
            ],
            "name": "Duplicate_Vote",
            "type": "error"
        },
        {
            "inputs": [
                {
                    "internalType": "uint256",
                    "name": "",
                    "type": "uint256"
                },
                {
                    "internalType": "uint256",
                    "name": "",
                    "type": "uint256"
                }
            ],
            "name": "InsufficientBalance",
            "type": "error"
        },
        {
            "inputs": [
                {
                    "internalType": "uint256",
                    "name": "",
                    "type": "uint256"
                }
            ],
            "name": "Invalid_Team",
            "type": "error"
        },
        {
            "inputs": [
                {
                    "internalType": "uint256",
                    "name": "",
                    "type": "uint256"
                },
                {
                    "internalType": "uint256",
                    "name": "",
                    "type": "uint256"
                }
            ],
            "name": "NotAllowed_For_Challenge",
            "type": "error"
        },
        {
            "inputs": [
                {
                    "internalType": "uint256",
                    "name": "",
                    "type": "uint256"
                },
                {
                    "internalType": "address",
                    "name": "",
                    "type": "address"
                }
            ],
            "name": "NotFoundMembershipRequest",
            "type": "error"
        },
        {
            "inputs": [
                {
                    "internalType": "uint256",
                    "name": "",
                    "type": "uint256"
                }
            ],
            "name": "Team_Unauthorized",
            "type": "error"
        },
        {
            "anonymous": false,
            "inputs": [
                {
                    "indexed": false,
                    "internalType": "uint256",
                    "name": "challenge_id",
                    "type": "uint256"
                }
            ],
            "name": "ChallengePoolClosed",
            "type": "event"
        },
        {
            "anonymous": false,
            "inputs": [
                {
                    "indexed": false,
                    "internalType": "uint256",
                    "name": "challenge_id",
                    "type": "uint256"
                },
                {
                    "indexed": false,
                    "internalType": "uint256",
                    "name": "amount",
                    "type": "uint256"
                },
                {
                    "indexed": false,
                    "internalType": "uint256",
                    "name": "team_id",
                    "type": "uint256"
                },
                {
                    "indexed": false,
                    "internalType": "uint256",
                    "name": "challenged_team_id",
                    "type": "uint256"
                }
            ],
            "name": "ChallengePoolCreated",
            "type": "event"
        },
        {
            "anonymous": false,
            "inputs": [
                {
                    "indexed": false,
                    "internalType": "uint256",
                    "name": "challenge_id",
                    "type": "uint256"
                },
                {
                    "indexed": false,
                    "internalType": "uint256",
                    "name": "team1",
                    "type": "uint256"
                },
                {
                    "indexed": false,
                    "internalType": "uint256",
                    "name": "team2",
                    "type": "uint256"
                }
            ],
            "name": "EventCreated",
            "type": "event"
        },
        {
            "anonymous": false,
            "inputs": [
                {
                    "indexed": false,
                    "internalType": "uint256",
                    "name": "team_id",
                    "type": "uint256"
                }
            ],
            "name": "MembershipRequestSent",
            "type": "event"
        },
        {
            "anonymous": false,
            "inputs": [
                {
                    "indexed": false,
                    "internalType": "uint256",
                    "name": "team_id",
                    "type": "uint256"
                },
                {
                    "indexed": false,
                    "internalType": "address",
                    "name": "user",
                    "type": "address"
                }
            ],
            "name": "NewTeamMate",
            "type": "event"
        },
        {
            "anonymous": false,
            "inputs": [
                {
                    "indexed": true,
                    "internalType": "address",
                    "name": "previousOwner",
                    "type": "address"
                },
                {
                    "indexed": true,
                    "internalType": "address",
                    "name": "newOwner",
                    "type": "address"
                }
            ],
            "name": "OwnershipTransferred",
            "type": "event"
        },
        {
            "anonymous": false,
            "inputs": [
                {
                    "indexed": false,
                    "internalType": "uint256",
                    "name": "team_id",
                    "type": "uint256"
                }
            ],
            "name": "TeamCreated",
            "type": "event"
        },
        {
            "inputs": [
                {
                    "internalType": "uint256",
                    "name": "challenge_id",
                    "type": "uint256"
                },
                {
                    "internalType": "uint256",
                    "name": "team_id",
                    "type": "uint256"
                }
            ],
            "name": "acceptChallenge",
            "outputs": [
                {
                    "internalType": "bool",
                    "name": "",
                    "type": "bool"
                }
            ],
            "stateMutability": "payable",
            "type": "function"
        },
        {
            "inputs": [
                {
                    "internalType": "uint256",
                    "name": "team_id",
                    "type": "uint256"
                }
            ],
            "name": "acceptMembershipTeamRequest",
            "outputs": [],
            "stateMutability": "nonpayable",
            "type": "function"
        },
        {
            "inputs": [
                {
                    "internalType": "uint256",
                    "name": "",
                    "type": "uint256"
                },
                {
                    "internalType": "uint256",
                    "name": "",
                    "type": "uint256"
                }
            ],
            "name": "challengPoolTeamMembers",
            "outputs": [
                {
                    "internalType": "address",
                    "name": "",
                    "type": "address"
                }
            ],
            "stateMutability": "view",
            "type": "function"
        },
        {
            "inputs": [
                {
                    "internalType": "uint256",
                    "name": "",
                    "type": "uint256"
                }
            ],
            "name": "challengPoolVote",
            "outputs": [
                {
                    "internalType": "uint256",
                    "name": "",
                    "type": "uint256"
                }
            ],
            "stateMutability": "view",
            "type": "function"
        },
        {
            "inputs": [
                {
                    "internalType": "uint256",
                    "name": "",
                    "type": "uint256"
                }
            ],
            "name": "challengePools",
            "outputs": [
                {
                    "internalType": "uint256",
                    "name": "team1",
                    "type": "uint256"
                },
                {
                    "internalType": "uint256",
                    "name": "team2",
                    "type": "uint256"
                },
                {
                    "internalType": "uint256",
                    "name": "amount",
                    "type": "uint256"
                },
                {
                    "internalType": "bool",
                    "name": "isClosed",
                    "type": "bool"
                },
                {
                    "internalType": "bool",
                    "name": "isCompleted",
                    "type": "bool"
                },
                {
                    "internalType": "uint256",
                    "name": "createdAt",
                    "type": "uint256"
                },
                {
                    "internalType": "uint256",
                    "name": "interval",
                    "type": "uint256"
                },
                {
                    "internalType": "uint256",
                    "name": "team1_count",
                    "type": "uint256"
                },
                {
                    "internalType": "uint256",
                    "name": "team2_count",
                    "type": "uint256"
                }
            ],
            "stateMutability": "view",
            "type": "function"
        },
        {
            "inputs": [
                {
                    "internalType": "bytes",
                    "name": "",
                    "type": "bytes"
                }
            ],
            "name": "checkUpkeep",
            "outputs": [
                {
                    "internalType": "bool",
                    "name": "upkeepNeeded",
                    "type": "bool"
                },
                {
                    "internalType": "bytes",
                    "name": "performData",
                    "type": "bytes"
                }
            ],
            "stateMutability": "view",
            "type": "function"
        },
        {
            "inputs": [
                {
                    "internalType": "uint256",
                    "name": "team_id",
                    "type": "uint256"
                },
                {
                    "internalType": "uint256",
                    "name": "challenged_team_id",
                    "type": "uint256"
                },
                {
                    "internalType": "uint256",
                    "name": "amount",
                    "type": "uint256"
                }
            ],
            "name": "createChallengePool",
            "outputs": [
                {
                    "internalType": "uint256",
                    "name": "",
                    "type": "uint256"
                }
            ],
            "stateMutability": "payable",
            "type": "function"
        },
        {
            "inputs": [],
            "name": "createTeam",
            "outputs": [
                {
                    "internalType": "uint256",
                    "name": "",
                    "type": "uint256"
                }
            ],
            "stateMutability": "nonpayable",
            "type": "function"
        },
        {
            "inputs": [
                {
                    "internalType": "uint256",
                    "name": "challenge_id",
                    "type": "uint256"
                },
                {
                    "internalType": "uint256",
                    "name": "team_id",
                    "type": "uint256"
                }
            ],
            "name": "delineChallenge",
            "outputs": [
                {
                    "internalType": "bool",
                    "name": "",
                    "type": "bool"
                }
            ],
            "stateMutability": "nonpayable",
            "type": "function"
        },
        {
            "inputs": [
                {
                    "internalType": "uint256",
                    "name": "team_id",
                    "type": "uint256"
                }
            ],
            "name": "getTeamCount",
            "outputs": [
                {
                    "internalType": "uint256",
                    "name": "",
                    "type": "uint256"
                }
            ],
            "stateMutability": "view",
            "type": "function"
        },
        {
            "inputs": [
                {
                    "internalType": "uint256",
                    "name": "team_id",
                    "type": "uint256"
                }
            ],
            "name": "getTeamMate",
            "outputs": [
                {
                    "internalType": "address[]",
                    "name": "",
                    "type": "address[]"
                }
            ],
            "stateMutability": "view",
            "type": "function"
        },
        {
            "inputs": [
                {
                    "internalType": "uint256",
                    "name": "team_id",
                    "type": "uint256"
                }
            ],
            "name": "getTeamSportsmanship",
            "outputs": [
                {
                    "internalType": "uint256",
                    "name": "",
                    "type": "uint256"
                }
            ],
            "stateMutability": "nonpayable",
            "type": "function"
        },
        {
            "inputs": [
                {
                    "internalType": "uint256",
                    "name": "challenge_id",
                    "type": "uint256"
                },
                {
                    "internalType": "uint256",
                    "name": "team_id",
                    "type": "uint256"
                }
            ],
            "name": "increaseVoteFor",
            "outputs": [
                {
                    "internalType": "uint256",
                    "name": "",
                    "type": "uint256"
                }
            ],
            "stateMutability": "nonpayable",
            "type": "function"
        },
        {
            "inputs": [],
            "name": "owner",
            "outputs": [
                {
                    "internalType": "address",
                    "name": "",
                    "type": "address"
                }
            ],
            "stateMutability": "view",
            "type": "function"
        },
        {
            "inputs": [
                {
                    "internalType": "uint256",
                    "name": "",
                    "type": "uint256"
                }
            ],
            "name": "pending_challenge_pool_ids",
            "outputs": [
                {
                    "internalType": "uint256",
                    "name": "",
                    "type": "uint256"
                }
            ],
            "stateMutability": "view",
            "type": "function"
        },
        {
            "inputs": [
                {
                    "internalType": "bytes",
                    "name": "performData",
                    "type": "bytes"
                }
            ],
            "name": "performUpkeep",
            "outputs": [],
            "stateMutability": "nonpayable",
            "type": "function"
        },
        {
            "inputs": [],
            "name": "renounceOwnership",
            "outputs": [],
            "stateMutability": "nonpayable",
            "type": "function"
        },
        {
            "inputs": [
                {
                    "internalType": "uint256",
                    "name": "team_id",
                    "type": "uint256"
                },
                {
                    "internalType": "address",
                    "name": "user",
                    "type": "address"
                }
            ],
            "name": "sendTeamMembershipRequest",
            "outputs": [
                {
                    "internalType": "bool",
                    "name": "",
                    "type": "bool"
                }
            ],
            "stateMutability": "nonpayable",
            "type": "function"
        },
        {
            "inputs": [],
            "name": "sportsVybeToken",
            "outputs": [
                {
                    "internalType": "contract IERC20",
                    "name": "",
                    "type": "address"
                }
            ],
            "stateMutability": "view",
            "type": "function"
        },
        {
            "inputs": [
                {
                    "internalType": "address",
                    "name": "",
                    "type": "address"
                }
            ],
            "name": "sportsmanship",
            "outputs": [
                {
                    "internalType": "uint256",
                    "name": "",
                    "type": "uint256"
                }
            ],
            "stateMutability": "view",
            "type": "function"
        },
        {
            "inputs": [
                {
                    "internalType": "uint256",
                    "name": "",
                    "type": "uint256"
                }
            ],
            "name": "teamCount",
            "outputs": [
                {
                    "internalType": "uint256",
                    "name": "",
                    "type": "uint256"
                }
            ],
            "stateMutability": "view",
            "type": "function"
        },
        {
            "inputs": [
                {
                    "internalType": "uint256",
                    "name": "",
                    "type": "uint256"
                },
                {
                    "internalType": "uint256",
                    "name": "",
                    "type": "uint256"
                }
            ],
            "name": "teamMembers",
            "outputs": [
                {
                    "internalType": "address",
                    "name": "",
                    "type": "address"
                }
            ],
            "stateMutability": "view",
            "type": "function"
        },
        {
            "inputs": [
                {
                    "internalType": "uint256",
                    "name": "",
                    "type": "uint256"
                },
                {
                    "internalType": "uint256",
                    "name": "",
                    "type": "uint256"
                }
            ],
            "name": "team_membership_request",
            "outputs": [
                {
                    "internalType": "address",
                    "name": "user",
                    "type": "address"
                }
            ],
            "stateMutability": "view",
            "type": "function"
        },
        {
            "inputs": [
                {
                    "internalType": "uint256",
                    "name": "",
                    "type": "uint256"
                }
            ],
            "name": "team_owner",
            "outputs": [
                {
                    "internalType": "address",
                    "name": "",
                    "type": "address"
                }
            ],
            "stateMutability": "view",
            "type": "function"
        },
        {
            "inputs": [
                {
                    "internalType": "uint256",
                    "name": "",
                    "type": "uint256"
                }
            ],
            "name": "team_sportsmanship",
            "outputs": [
                {
                    "internalType": "uint256",
                    "name": "",
                    "type": "uint256"
                }
            ],
            "stateMutability": "view",
            "type": "function"
        },
        {
            "inputs": [
                {
                    "internalType": "address",
                    "name": "newOwner",
                    "type": "address"
                }
            ],
            "name": "transferOwnership",
            "outputs": [],
            "stateMutability": "nonpayable",
            "type": "function"
        }
    ],
    "bytecode": "0x60806040526000600d55610379600e556000600f553480156200002157600080fd5b5060405162002bc238038062002bc2833981810160405281019062000047919062000192565b620000676200005b620000af60201b60201c565b620000b760201b60201c565b80600160006101000a81548173ffffffffffffffffffffffffffffffffffffffff021916908373ffffffffffffffffffffffffffffffffffffffff1602179055505062000217565b600033905090565b60008060009054906101000a900473ffffffffffffffffffffffffffffffffffffffff169050816000806101000a81548173ffffffffffffffffffffffffffffffffffffffff021916908373ffffffffffffffffffffffffffffffffffffffff1602179055508173ffffffffffffffffffffffffffffffffffffffff168173ffffffffffffffffffffffffffffffffffffffff167f8be0079c531659141344cd1fd0a4f28419497f9722a3daafe3b4186f6b6457e060405160405180910390a35050565b6000815190506200018c81620001fd565b92915050565b600060208284031215620001ab57620001aa620001f8565b5b6000620001bb848285016200017b565b91505092915050565b6000620001d182620001d8565b9050919050565b600073ffffffffffffffffffffffffffffffffffffffff82169050919050565b600080fd5b6200020881620001c4565b81146200021457600080fd5b50565b61299b80620002276000396000f3fe6080604052600436106101815760003560e01c80636e04ff0d116100d157806396b9ec601161008a578063aa5a0c8211610064578063aa5a0c8214610643578063c2f79bf514610680578063d858be5d146106a9578063f2fde38b146106e657610181565b806396b9ec601461058c5780639ca47c9a146105c9578063a35712ff1461060657610181565b80636e04ff0d1461045f578063715018a61461049d5780638a59d847146104b45780638da5cb5b146104df5780638f6dcb161461050a578063958ef0611461054f57610181565b806332670a8e1161013e5780633ec57c5b116101185780633ec57c5b14610391578063420d93c1146103ce5780634585e33b146103f957806357c9817f1461042257610181565b806332670a8e146102e75780633ab266a2146103245780633c9547b21461036157610181565b806308113459146101865780630e14e2fc146101c3578063131178ac14610200578063188e09fa146102305780631abe0b401461026d5780632b0a2d2e146102aa575b600080fd5b34801561019257600080fd5b506101ad60048036038101906101a89190612175565b61070f565b6040516101ba91906123ee565b60405180910390f35b3480156101cf57600080fd5b506101ea60048036038101906101e59190612148565b61092a565b6040516101f79190612494565b60405180910390f35b61021a600480360381019061021591906121b5565b610942565b60405161022791906123ee565b60405180910390f35b34801561023c57600080fd5b50610257600480360381019061025291906121b5565b610b33565b6040516102649190612494565b60405180910390f35b34801561027957600080fd5b50610294600480360381019061028f91906121b5565b610fc1565b6040516102a191906123ee565b60405180910390f35b3480156102b657600080fd5b506102d160048036038101906102cc91906121b5565b61107b565b6040516102de9190612388565b60405180910390f35b3480156102f357600080fd5b5061030e600480360381019061030991906120a1565b6110d2565b60405161031b9190612494565b60405180910390f35b34801561033057600080fd5b5061034b60048036038101906103469190612148565b6110ea565b6040516103589190612388565b60405180910390f35b61037b600480360381019061037691906121f5565b61111d565b6040516103889190612494565b60405180910390f35b34801561039d57600080fd5b506103b860048036038101906103b39190612148565b6113cf565b6040516103c591906123cc565b60405180910390f35b3480156103da57600080fd5b506103e3611470565b6040516103f09190612439565b60405180910390f35b34801561040557600080fd5b50610420600480360381019061041b91906120fb565b611496565b005b34801561042e57600080fd5b50610449600480360381019061044491906121b5565b61150c565b6040516104569190612388565b60405180910390f35b34801561046b57600080fd5b50610486600480360381019061048191906120fb565b61155a565b604051610494929190612409565b60405180910390f35b3480156104a957600080fd5b506104b2611623565b005b3480156104c057600080fd5b506104c96116ab565b6040516104d69190612494565b60405180910390f35b3480156104eb57600080fd5b506104f4611827565b6040516105019190612388565b60405180910390f35b34801561051657600080fd5b50610531600480360381019061052c9190612148565b611850565b60405161054699989796959493929190612538565b60405180910390f35b34801561055b57600080fd5b50610576600480360381019061057191906121b5565b6118b8565b6040516105839190612388565b60405180910390f35b34801561059857600080fd5b506105b360048036038101906105ae9190612148565b611906565b6040516105c09190612494565b60405180910390f35b3480156105d557600080fd5b506105f060048036038101906105eb9190612148565b61192a565b6040516105fd9190612494565b60405180910390f35b34801561061257600080fd5b5061062d60048036038101906106289190612148565b611942565b60405161063a9190612494565b60405180910390f35b34801561064f57600080fd5b5061066a60048036038101906106659190612148565b61195a565b6040516106779190612494565b60405180910390f35b34801561068c57600080fd5b506106a760048036038101906106a29190612148565b611995565b005b3480156106b557600080fd5b506106d060048036038101906106cb9190612148565b611c4f565b6040516106dd9190612494565b60405180910390f35b3480156106f257600080fd5b5061070d600480360381019061070891906120a1565b611c6c565b005b600080600360003373ffffffffffffffffffffffffffffffffffffffff1673ffffffffffffffffffffffffffffffffffffffff16815260200190815260200160002054141561079e576064600360003373ffffffffffffffffffffffffffffffffffffffff1673ffffffffffffffffffffffffffffffffffffffff168152602001908152602001600020819055505b823373ffffffffffffffffffffffffffffffffffffffff166005600083815260200190815260200160002060009054906101000a900473ffffffffffffffffffffffffffffffffffffffff1673ffffffffffffffffffffffffffffffffffffffff161461084257806040517fbf2fd4e50000000000000000000000000000000000000000000000000000000081526004016108399190612494565b60405180910390fd5b6004600085815260200190815260200160002060405180602001604052808573ffffffffffffffffffffffffffffffffffffffff168152509080600181540180825580915050600190039060005260206000200160009091909190915060008201518160000160006101000a81548173ffffffffffffffffffffffffffffffffffffffff021916908373ffffffffffffffffffffffffffffffffffffffff16021790555050507fe96ddc8e1ac943b3b144abc6c8fa24de20b9ea07083e00759d6da54d794df91e846040516109179190612494565b60405180910390a1600191505092915050565b60066020528060005260406000206000915090505481565b6000813373ffffffffffffffffffffffffffffffffffffffff166005600083815260200190815260200160002060009054906101000a900473ffffffffffffffffffffffffffffffffffffffff1673ffffffffffffffffffffffffffffffffffffffff16146109e857806040517fbf2fd4e50000000000000000000000000000000000000000000000000000000081526004016109df9190612494565b60405180910390fd5b82600a60008681526020019081526020016000206001015414610a445783836040517f4a2184e1000000000000000000000000000000000000000000000000000000008152600401610a3b9291906124d8565b60405180910390fd5b6000600a6000868152602001908152602001600020600201549050803410610aa55784816040517fcf479181000000000000000000000000000000000000000000000000000000008152600401610a9c9291906124d8565b60405180910390fd5b83600a6000878152602001908152602001600020600101819055507f06168e40fac2576e22d73ab2e9efa79b4e7530dd3dd411ab7d8862d04be798a285600a600088815260200190815260200160002060000154600a600089815260200190815260200160002060010154604051610b1f93929190612501565b60405180910390a160019250505092915050565b600080600260003373ffffffffffffffffffffffffffffffffffffffff1673ffffffffffffffffffffffffffffffffffffffff168152602001908152602001600020805480602002602001604051908101604052809291908181526020016000905b82821015610bcd5783829060005260206000200160405180602001604052908160008201548152505081526020019060010190610b95565b50505050905060005b8151811015610c555784828281518110610bf357610bf261284f565b5b6020026020010151600001511415610c4257846040517f7d2564f1000000000000000000000000000000000000000000000000000000008152600401610c399190612494565b60405180910390fd5b8080610c4d906127a8565b915050610bd6565b5082600a6000868152602001908152602001600020600001541415610ca7576001600a60008681526020019081526020016000206006016000828254610c9b9190612670565b92505081905550610d36565b82600a6000868152602001908152602001600020600101541415610cf8576001600a60008681526020019081526020016000206006016000828254610cec9190612670565b92505081905550610d35565b826040517fa01bb16a000000000000000000000000000000000000000000000000000000008152600401610d2c9190612494565b60405180910390fd5b5b6000600a600086815260200190815260200160002060070154600a600087815260200190815260200160002060060154610d709190612670565b90506002600b600087815260200190815260200160002080549050610d9591906126c6565b811415610eab57600060056000600a600089815260200190815260200160002060000154815260200190815260200160002060009054906101000a900473ffffffffffffffffffffffffffffffffffffffff169050600060056000600a60008a815260200190815260200160002060010154815260200190815260200160002060009054906101000a900473ffffffffffffffffffffffffffffffffffffffff1690506001600a600089815260200190815260200160002060030160006101000a81548160ff0219169083151502179055507f3299dee1d6fc77e6c880256c8fe0041609bd74cb1e8d2ce5043871ba4bb491b387604051610e969190612494565b60405180910390a16000945050505050610fbb565b6002600b600087815260200190815260200160002080549050610ece91906126c6565b811115610fb4576000600a600087815260200190815260200160002060060154600a6000888152602001908152602001600020600601541115610f2957600a6000878152602001908152602001600020600001549050610f43565b600a60008781526020019081526020016000206001015490505b6001600a600088815260200190815260200160002060030160006101000a81548160ff0219169083151502179055507f3299dee1d6fc77e6c880256c8fe0041609bd74cb1e8d2ce5043871ba4bb491b386604051610fa19190612494565b60405180910390a1809350505050610fbb565b6000925050505b92915050565b6000813373ffffffffffffffffffffffffffffffffffffffff166005600083815260200190815260200160002060009054906101000a900473ffffffffffffffffffffffffffffffffffffffff1673ffffffffffffffffffffffffffffffffffffffff161461106757806040517fbf2fd4e500000000000000000000000000000000000000000000000000000000815260040161105e9190612494565b60405180910390fd5b61107084611d64565b600191505092915050565b6004602052816000526040600020818154811061109757600080fd5b90600052602060002001600091509150508060000160009054906101000a900473ffffffffffffffffffffffffffffffffffffffff16905081565b60036020528060005260406000206000915090505481565b60056020528060005260406000206000915054906101000a900473ffffffffffffffffffffffffffffffffffffffff1681565b600080600360003373ffffffffffffffffffffffffffffffffffffffff1673ffffffffffffffffffffffffffffffffffffffff1681526020019081526020016000205414156111ac576064600360003373ffffffffffffffffffffffffffffffffffffffff1673ffffffffffffffffffffffffffffffffffffffff168152602001908152602001600020819055505b833373ffffffffffffffffffffffffffffffffffffffff166005600083815260200190815260200160002060009054906101000a900473ffffffffffffffffffffffffffffffffffffffff1673ffffffffffffffffffffffffffffffffffffffff161461125057806040517fbf2fd4e50000000000000000000000000000000000000000000000000000000081526004016112479190612494565b60405180910390fd5b6000600590506000600e549050604051806101200160405280888152602001878152602001868152602001600015158152602001600015158152602001428152602001838152602001600081526020016000815250600a600083815260200190815260200160002060008201518160000155602082015181600101556040820151816002015560608201518160030160006101000a81548160ff02191690831515021790555060808201518160030160016101000a81548160ff02191690831515021790555060a0820151816004015560c0820151816005015560e082015181600601556101008201518160070155905050600c8190806001815401808255809150506001900390600052602060002001600090919091909150556001600e600082825461137e9190612670565b925050819055507f77d5bbaa1959f33c5de7724917a9cb0150bdde1bdbe056cd928f24ec723c5df6818689896040516113ba94939291906125c5565b60405180910390a18093505050509392505050565b60606008600083815260200190815260200160002080548060200260200160405190810160405280929190818152602001828054801561146457602002820191906000526020600020905b8160009054906101000a900473ffffffffffffffffffffffffffffffffffffffff1673ffffffffffffffffffffffffffffffffffffffff168152602001906001019080831161141a575b50505050509050919050565b600160009054906101000a900473ffffffffffffffffffffffffffffffffffffffff1681565b600082828101906114a79190612148565b905042600a600083815260200190815260200160002060050154600a6000848152602001908152602001600020600401546114e29190612670565b1115611507576001600f546114f79190612670565b600f8190555061150681611d64565b5b505050565b6008602052816000526040600020818154811061152857600080fd5b906000526020600020016000915091509054906101000a900473ffffffffffffffffffffffffffffffffffffffff1681565b6000606060005b600c8054905081101561161b5742600a6000600c84815481106115875761158661284f565b5b9060005260206000200154815260200190815260200160002060050154600a6000600c85815481106115bc576115bb61284f565b5b90600052602060002001548152602001908152602001600020600401546115e39190612670565b119250806040516020016115f79190612494565b60405160208183030381529060405291508080611613906127a8565b915050611561565b509250929050565b61162b611f40565b73ffffffffffffffffffffffffffffffffffffffff16611649611827565b73ffffffffffffffffffffffffffffffffffffffff161461169f576040517f08c379a000000000000000000000000000000000000000000000000000000000815260040161169690612474565b60405180910390fd5b6116a96000611f48565b565b600080600360003373ffffffffffffffffffffffffffffffffffffffff1673ffffffffffffffffffffffffffffffffffffffff16815260200190815260200160002054141561173a576064600360003373ffffffffffffffffffffffffffffffffffffffff1673ffffffffffffffffffffffffffffffffffffffff168152602001908152602001600020819055505b60006001600d5461174b9190612670565b9050336005600083815260200190815260200160002060006101000a81548173ffffffffffffffffffffffffffffffffffffffff021916908373ffffffffffffffffffffffffffffffffffffffff16021790555060016007600083815260200190815260200160002081905550606460066000838152602001908152602001600020819055507f015c069c0e6438bd2d98e0c7b6526d4f7596120b3a6ac20fd43f2aa00450b813816040516118009190612494565b60405180910390a1600d600081548092919061181b906127a8565b91905055508091505090565b60008060009054906101000a900473ffffffffffffffffffffffffffffffffffffffff16905090565b600a6020528060005260406000206000915090508060000154908060010154908060020154908060030160009054906101000a900460ff16908060030160019054906101000a900460ff16908060040154908060050154908060060154908060070154905089565b600b60205281600052604060002081815481106118d457600080fd5b906000526020600020016000915091509054906101000a900473ffffffffffffffffffffffffffffffffffffffff1681565b600c818154811061191657600080fd5b906000526020600020016000915090505481565b60096020528060005260406000206000915090505481565b60076020528060005260406000206000915090505481565b60006007600083815260200190815260200160002054600660008481526020019081526020016000205461198e91906126c6565b9050919050565b6000600360003373ffffffffffffffffffffffffffffffffffffffff1673ffffffffffffffffffffffffffffffffffffffff168152602001908152602001600020541415611a23576064600360003373ffffffffffffffffffffffffffffffffffffffff1673ffffffffffffffffffffffffffffffffffffffff168152602001908152602001600020819055505b6000805b6004600084815260200190815260200160002080549050811015611ae7573373ffffffffffffffffffffffffffffffffffffffff16600460008581526020019081526020016000208281548110611a8157611a8061284f565b5b9060005260206000200160000160009054906101000a900473ffffffffffffffffffffffffffffffffffffffff1673ffffffffffffffffffffffffffffffffffffffff161415611ad45760019150611ae7565b8080611adf906127a8565b915050611a27565b506000811415611b305781336040517fb0cdf7e7000000000000000000000000000000000000000000000000000000008152600401611b279291906124af565b60405180910390fd5b60086000838152602001908152602001600020339080600181540180825580915050600190039060005260206000200160009091909190916101000a81548173ffffffffffffffffffffffffffffffffffffffff021916908373ffffffffffffffffffffffffffffffffffffffff16021790555060016007600084815260200190815260200160002054611bc49190612670565b600760008481526020019081526020016000208190555060646006600084815260200190815260200160002054611bfb9190612670565b60066000848152602001908152602001600020819055507facf469d13776cbb2c2ad5f2817a7797650091c8559a1d3bba51d3ef280b72c778233604051611c439291906124af565b60405180910390a15050565b600060076000838152602001908152602001600020549050919050565b611c74611f40565b73ffffffffffffffffffffffffffffffffffffffff16611c92611827565b73ffffffffffffffffffffffffffffffffffffffff1614611ce8576040517f08c379a0000000000000000000000000000000000000000000000000000000008152600401611cdf90612474565b60405180910390fd5b600073ffffffffffffffffffffffffffffffffffffffff168173ffffffffffffffffffffffffffffffffffffffff161415611d58576040517f08c379a0000000000000000000000000000000000000000000000000000000008152600401611d4f90612454565b60405180910390fd5b611d6181611f48565b50565b6000600a6000838152602001908152602001600020604051806101200160405290816000820154815260200160018201548152602001600282015481526020016003820160009054906101000a900460ff161515151581526020016003820160019054906101000a900460ff16151515158152602001600482015481526020016005820154815260200160068201548152602001600782015481525050905060018160600190151590811515815250506000600560008360000151815260200190815260200160002060009054906101000a900473ffffffffffffffffffffffffffffffffffffffff169050600160009054906101000a900473ffffffffffffffffffffffffffffffffffffffff1673ffffffffffffffffffffffffffffffffffffffff1663a9059cbb8284604001516040518363ffffffff1660e01b8152600401611eb19291906123a3565b602060405180830381600087803b158015611ecb57600080fd5b505af1158015611edf573d6000803e3d6000fd5b505050506040513d601f19601f82011682018060405250810190611f0391906120ce565b507f3299dee1d6fc77e6c880256c8fe0041609bd74cb1e8d2ce5043871ba4bb491b383604051611f339190612494565b60405180910390a1505050565b600033905090565b60008060009054906101000a900473ffffffffffffffffffffffffffffffffffffffff169050816000806101000a81548173ffffffffffffffffffffffffffffffffffffffff021916908373ffffffffffffffffffffffffffffffffffffffff1602179055508173ffffffffffffffffffffffffffffffffffffffff168173ffffffffffffffffffffffffffffffffffffffff167f8be0079c531659141344cd1fd0a4f28419497f9722a3daafe3b4186f6b6457e060405160405180910390a35050565b60008135905061201b81612920565b92915050565b60008151905061203081612937565b92915050565b60008083601f84011261204c5761204b612883565b5b8235905067ffffffffffffffff8111156120695761206861287e565b5b60208301915083600182028301111561208557612084612888565b5b9250929050565b60008135905061209b8161294e565b92915050565b6000602082840312156120b7576120b6612892565b5b60006120c58482850161200c565b91505092915050565b6000602082840312156120e4576120e3612892565b5b60006120f284828501612021565b91505092915050565b6000806020838503121561211257612111612892565b5b600083013567ffffffffffffffff8111156121305761212f61288d565b5b61213c85828601612036565b92509250509250929050565b60006020828403121561215e5761215d612892565b5b600061216c8482850161208c565b91505092915050565b6000806040838503121561218c5761218b612892565b5b600061219a8582860161208c565b92505060206121ab8582860161200c565b9150509250929050565b600080604083850312156121cc576121cb612892565b5b60006121da8582860161208c565b92505060206121eb8582860161208c565b9150509250929050565b60008060006060848603121561220e5761220d612892565b5b600061221c8682870161208c565b935050602061222d8682870161208c565b925050604061223e8682870161208c565b9150509250925092565b60006122548383612260565b60208301905092915050565b612269816126f7565b82525050565b612278816126f7565b82525050565b60006122898261261a565b612293818561263d565b935061229e8361260a565b8060005b838110156122cf5781516122b68882612248565b97506122c183612630565b9250506001810190506122a2565b5085935050505092915050565b6122e581612709565b82525050565b60006122f682612625565b612300818561264e565b9350612310818560208601612775565b61231981612897565b840191505092915050565b61232d8161273f565b82525050565b600061234060268361265f565b915061234b826128a8565b604082019050919050565b600061236360208361265f565b915061236e826128f7565b602082019050919050565b61238281612735565b82525050565b600060208201905061239d600083018461226f565b92915050565b60006040820190506123b8600083018561226f565b6123c56020830184612379565b9392505050565b600060208201905081810360008301526123e6818461227e565b905092915050565b600060208201905061240360008301846122dc565b92915050565b600060408201905061241e60008301856122dc565b818103602083015261243081846122eb565b90509392505050565b600060208201905061244e6000830184612324565b92915050565b6000602082019050818103600083015261246d81612333565b9050919050565b6000602082019050818103600083015261248d81612356565b9050919050565b60006020820190506124a96000830184612379565b92915050565b60006040820190506124c46000830185612379565b6124d1602083018461226f565b9392505050565b60006040820190506124ed6000830185612379565b6124fa6020830184612379565b9392505050565b60006060820190506125166000830186612379565b6125236020830185612379565b6125306040830184612379565b949350505050565b60006101208201905061254e600083018c612379565b61255b602083018b612379565b612568604083018a612379565b61257560608301896122dc565b61258260808301886122dc565b61258f60a0830187612379565b61259c60c0830186612379565b6125a960e0830185612379565b6125b7610100830184612379565b9a9950505050505050505050565b60006080820190506125da6000830187612379565b6125e76020830186612379565b6125f46040830185612379565b6126016060830184612379565b95945050505050565b6000819050602082019050919050565b600081519050919050565b600081519050919050565b6000602082019050919050565b600082825260208201905092915050565b600082825260208201905092915050565b600082825260208201905092915050565b600061267b82612735565b915061268683612735565b9250827fffffffffffffffffffffffffffffffffffffffffffffffffffffffffffffffff038211156126bb576126ba6127f1565b5b828201905092915050565b60006126d182612735565b91506126dc83612735565b9250826126ec576126eb612820565b5b828204905092915050565b600061270282612715565b9050919050565b60008115159050919050565b600073ffffffffffffffffffffffffffffffffffffffff82169050919050565b6000819050919050565b600061274a82612751565b9050919050565b600061275c82612763565b9050919050565b600061276e82612715565b9050919050565b60005b83811015612793578082015181840152602081019050612778565b838111156127a2576000848401525b50505050565b60006127b382612735565b91507fffffffffffffffffffffffffffffffffffffffffffffffffffffffffffffffff8214156127e6576127e56127f1565b5b600182019050919050565b7f4e487b7100000000000000000000000000000000000000000000000000000000600052601160045260246000fd5b7f4e487b7100000000000000000000000000000000000000000000000000000000600052601260045260246000fd5b7f4e487b7100000000000000000000000000000000000000000000000000000000600052603260045260246000fd5b600080fd5b600080fd5b600080fd5b600080fd5b600080fd5b6000601f19601f8301169050919050565b7f4f776e61626c653a206e6577206f776e657220697320746865207a65726f206160008201527f6464726573730000000000000000000000000000000000000000000000000000602082015250565b7f4f776e61626c653a2063616c6c6572206973206e6f7420746865206f776e6572600082015250565b612929816126f7565b811461293457600080fd5b50565b61294081612709565b811461294b57600080fd5b50565b61295781612735565b811461296257600080fd5b5056fea2646970667358221220add3af829868fe076fccd98e6651412c46a727ab9b5c7771841a87ddb5aa42f364736f6c63430008070033",
    "linkReferences": {},
    "deployedLinkReferences": {}
}