{
    "_format": "hh-sol-artifact-1",
    "contractName": "SportsVybe",
    "sourceName": "contracts/SportsVybe.sol",
    "abi": [
        {
            "inputs": [
                {
                    "internalType": "address",
                    "name": "_sportsVybeToken",
                    "type": "address"
                }
            ],
            "stateMutability": "nonpayable",
            "type": "constructor"
        },
        {
            "inputs": [
                {
                    "internalType": "uint256",
                    "name": "",
                    "type": "uint256"
                }
            ],
            "name": "ChallengePoolCreation_Unauthorized",
            "type": "error"
        },
        {
            "inputs": [
                {
                    "internalType": "uint256",
                    "name": "",
                    "type": "uint256"
                }
            ],
            "name": "FailedEventCreation_ChallengePoolClosed",
            "type": "error"
        },
        {
            "inputs": [
                {
                    "internalType": "uint256",
                    "name": "",
                    "type": "uint256"
                }
            ],
            "name": "FailedEventCreation_DuplicateTeam",
            "type": "error"
        },
        {
            "inputs": [
                {
                    "internalType": "uint256",
                    "name": "",
                    "type": "uint256"
                },
                {
                    "internalType": "uint256",
                    "name": "",
                    "type": "uint256"
                }
            ],
            "name": "FailedEventCreation_InsufficientBalance",
            "type": "error"
        },
        {
            "inputs": [
                {
                    "internalType": "uint256",
                    "name": "",
                    "type": "uint256"
                },
                {
                    "internalType": "uint256",
                    "name": "",
                    "type": "uint256"
                }
            ],
            "name": "InsufficientBalance",
            "type": "error"
        },
        {
            "inputs": [
                {
                    "internalType": "uint256",
                    "name": "",
                    "type": "uint256"
                },
                {
                    "internalType": "uint256",
                    "name": "",
                    "type": "uint256"
                }
            ],
            "name": "NotAllowed",
            "type": "error"
        },
        {
            "inputs": [
                {
                    "internalType": "uint256",
                    "name": "",
                    "type": "uint256"
                },
                {
                    "internalType": "address",
                    "name": "",
                    "type": "address"
                }
            ],
            "name": "NotFoundMembershipRequest",
            "type": "error"
        },
        {
            "inputs": [
                {
                    "internalType": "uint256",
                    "name": "",
                    "type": "uint256"
                }
            ],
            "name": "Unauthorized",
            "type": "error"
        },
        {
            "inputs": [
                {
                    "internalType": "uint256",
                    "name": "",
                    "type": "uint256"
                },
                {
                    "internalType": "address",
                    "name": "",
                    "type": "address"
                }
            ],
            "name": "sendTeamMembershipRequest_Unauthorized",
            "type": "error"
        },
        {
            "anonymous": false,
            "inputs": [
                {
                    "indexed": false,
                    "internalType": "uint256",
                    "name": "challenge_id",
                    "type": "uint256"
                },
                {
                    "indexed": false,
                    "internalType": "uint256",
                    "name": "amount",
                    "type": "uint256"
                },
                {
                    "indexed": false,
                    "internalType": "uint256",
                    "name": "team_id",
                    "type": "uint256"
                },
                {
                    "indexed": false,
                    "internalType": "uint256",
                    "name": "challenged_team_id",
                    "type": "uint256"
                }
            ],
            "name": "ChallengePoolCreated",
            "type": "event"
        },
        {
            "anonymous": false,
            "inputs": [
                {
                    "indexed": false,
                    "internalType": "uint256",
                    "name": "challenge_id",
                    "type": "uint256"
                },
                {
                    "indexed": false,
                    "internalType": "uint256",
                    "name": "team1",
                    "type": "uint256"
                },
                {
                    "indexed": false,
                    "internalType": "uint256",
                    "name": "team2",
                    "type": "uint256"
                }
            ],
            "name": "EventCreated",
            "type": "event"
        },
        {
            "anonymous": false,
            "inputs": [
                {
                    "indexed": false,
                    "internalType": "uint256",
                    "name": "team_id",
                    "type": "uint256"
                }
            ],
            "name": "MembershipRequestSent",
            "type": "event"
        },
        {
            "anonymous": false,
            "inputs": [
                {
                    "indexed": false,
                    "internalType": "uint256",
                    "name": "team_id",
                    "type": "uint256"
                },
                {
                    "indexed": false,
                    "internalType": "address",
                    "name": "user",
                    "type": "address"
                }
            ],
            "name": "NewTeamMate",
            "type": "event"
        },
        {
            "anonymous": false,
            "inputs": [
                {
                    "indexed": true,
                    "internalType": "address",
                    "name": "previousOwner",
                    "type": "address"
                },
                {
                    "indexed": true,
                    "internalType": "address",
                    "name": "newOwner",
                    "type": "address"
                }
            ],
            "name": "OwnershipTransferred",
            "type": "event"
        },
        {
            "anonymous": false,
            "inputs": [
                {
                    "indexed": false,
                    "internalType": "uint256",
                    "name": "team_id",
                    "type": "uint256"
                }
            ],
            "name": "TeamCreated",
            "type": "event"
        },
        {
            "inputs": [
                {
                    "internalType": "uint256",
                    "name": "challenge_id",
                    "type": "uint256"
                },
                {
                    "internalType": "uint256",
                    "name": "team_id",
                    "type": "uint256"
                }
            ],
            "name": "acceptChallenge",
            "outputs": [
                {
                    "internalType": "bool",
                    "name": "",
                    "type": "bool"
                }
            ],
            "stateMutability": "payable",
            "type": "function"
        },
        {
            "inputs": [
                {
                    "internalType": "uint256",
                    "name": "team_id",
                    "type": "uint256"
                }
            ],
            "name": "acceptMembershipTeamRequest",
            "outputs": [],
            "stateMutability": "nonpayable",
            "type": "function"
        },
        {
            "inputs": [
                {
                    "internalType": "uint256",
                    "name": "",
                    "type": "uint256"
                }
            ],
            "name": "challengePools",
            "outputs": [
                {
                    "internalType": "uint256",
                    "name": "team1",
                    "type": "uint256"
                },
                {
                    "internalType": "uint256",
                    "name": "team2",
                    "type": "uint256"
                },
                {
                    "internalType": "uint256",
                    "name": "amount",
                    "type": "uint256"
                },
                {
                    "internalType": "bool",
                    "name": "isClosed",
                    "type": "bool"
                },
                {
                    "internalType": "bool",
                    "name": "isCompleted",
                    "type": "bool"
                }
            ],
            "stateMutability": "view",
            "type": "function"
        },
        {
            "inputs": [
                {
                    "internalType": "uint256",
                    "name": "",
                    "type": "uint256"
                }
            ],
            "name": "challenged_team_pool",
            "outputs": [
                {
                    "internalType": "uint256",
                    "name": "",
                    "type": "uint256"
                }
            ],
            "stateMutability": "view",
            "type": "function"
        },
        {
            "inputs": [
                {
                    "internalType": "uint256",
                    "name": "team_id",
                    "type": "uint256"
                },
                {
                    "internalType": "uint256",
                    "name": "challenged_team_id",
                    "type": "uint256"
                },
                {
                    "internalType": "uint256",
                    "name": "amount",
                    "type": "uint256"
                }
            ],
            "name": "createChallengePool",
            "outputs": [
                {
                    "internalType": "uint256",
                    "name": "",
                    "type": "uint256"
                }
            ],
            "stateMutability": "nonpayable",
            "type": "function"
        },
        {
            "inputs": [],
            "name": "createTeam",
            "outputs": [
                {
                    "internalType": "uint256",
                    "name": "",
                    "type": "uint256"
                }
            ],
            "stateMutability": "nonpayable",
            "type": "function"
        },
        {
            "inputs": [
                {
                    "internalType": "uint256",
                    "name": "challenge_id",
                    "type": "uint256"
                },
                {
                    "internalType": "uint256",
                    "name": "team_id",
                    "type": "uint256"
                }
            ],
            "name": "delineChallenge",
            "outputs": [
                {
                    "internalType": "bool",
                    "name": "",
                    "type": "bool"
                }
            ],
            "stateMutability": "nonpayable",
            "type": "function"
        },
        {
            "inputs": [
                {
                    "internalType": "uint256",
                    "name": "team_id",
                    "type": "uint256"
                }
            ],
            "name": "getTeamCount",
            "outputs": [
                {
                    "internalType": "uint256",
                    "name": "",
                    "type": "uint256"
                }
            ],
            "stateMutability": "view",
            "type": "function"
        },
        {
            "inputs": [
                {
                    "internalType": "uint256",
                    "name": "team_id",
                    "type": "uint256"
                }
            ],
            "name": "getTeamMate",
            "outputs": [
                {
                    "components": [
                        {
                            "internalType": "address",
                            "name": "user",
                            "type": "address"
                        }
                    ],
                    "internalType": "struct SportsVybe.TeamMate[]",
                    "name": "",
                    "type": "tuple[]"
                }
            ],
            "stateMutability": "view",
            "type": "function"
        },
        {
            "inputs": [
                {
                    "internalType": "uint256",
                    "name": "team_id",
                    "type": "uint256"
                }
            ],
            "name": "getTeamSportsmanship",
            "outputs": [
                {
                    "internalType": "uint256",
                    "name": "",
                    "type": "uint256"
                }
            ],
            "stateMutability": "nonpayable",
            "type": "function"
        },
        {
            "inputs": [
                {
                    "internalType": "uint256",
                    "name": "team_id",
                    "type": "uint256"
                },
                {
                    "internalType": "uint256",
                    "name": "challenge_id",
                    "type": "uint256"
                }
            ],
            "name": "joinChallengePool",
            "outputs": [
                {
                    "internalType": "bool",
                    "name": "",
                    "type": "bool"
                }
            ],
            "stateMutability": "payable",
            "type": "function"
        },
        {
            "inputs": [],
            "name": "owner",
            "outputs": [
                {
                    "internalType": "address",
                    "name": "",
                    "type": "address"
                }
            ],
            "stateMutability": "view",
            "type": "function"
        },
        {
            "inputs": [],
            "name": "renounceOwnership",
            "outputs": [],
            "stateMutability": "nonpayable",
            "type": "function"
        },
        {
            "inputs": [
                {
                    "internalType": "uint256",
                    "name": "team_id",
                    "type": "uint256"
                },
                {
                    "internalType": "address",
                    "name": "user",
                    "type": "address"
                }
            ],
            "name": "sendTeamMembershipRequest",
            "outputs": [
                {
                    "internalType": "bool",
                    "name": "",
                    "type": "bool"
                }
            ],
            "stateMutability": "nonpayable",
            "type": "function"
        },
        {
            "inputs": [],
            "name": "sportsVybeToken",
            "outputs": [
                {
                    "internalType": "contract IERC20",
                    "name": "",
                    "type": "address"
                }
            ],
            "stateMutability": "view",
            "type": "function"
        },
        {
            "inputs": [
                {
                    "internalType": "address",
                    "name": "",
                    "type": "address"
                }
            ],
            "name": "sportsmanship",
            "outputs": [
                {
                    "internalType": "uint256",
                    "name": "",
                    "type": "uint256"
                }
            ],
            "stateMutability": "view",
            "type": "function"
        },
        {
            "inputs": [
                {
                    "internalType": "uint256",
                    "name": "",
                    "type": "uint256"
                },
                {
                    "internalType": "uint256",
                    "name": "",
                    "type": "uint256"
                }
            ],
            "name": "team_membership_request",
            "outputs": [
                {
                    "internalType": "address",
                    "name": "user",
                    "type": "address"
                }
            ],
            "stateMutability": "view",
            "type": "function"
        },
        {
            "inputs": [
                {
                    "internalType": "uint256",
                    "name": "",
                    "type": "uint256"
                }
            ],
            "name": "team_owner",
            "outputs": [
                {
                    "internalType": "address",
                    "name": "",
                    "type": "address"
                }
            ],
            "stateMutability": "view",
            "type": "function"
        },
        {
            "inputs": [
                {
                    "internalType": "uint256",
                    "name": "",
                    "type": "uint256"
                }
            ],
            "name": "team_sportsmanship",
            "outputs": [
                {
                    "internalType": "uint256",
                    "name": "",
                    "type": "uint256"
                }
            ],
            "stateMutability": "view",
            "type": "function"
        },
        {
            "inputs": [
                {
                    "internalType": "address",
                    "name": "newOwner",
                    "type": "address"
                }
            ],
            "name": "transferOwnership",
            "outputs": [],
            "stateMutability": "nonpayable",
            "type": "function"
        }
    ],
    "bytecode": "0x60806040526000600a553480156200001657600080fd5b50604051620024d2380380620024d283398181016040528101906200003c919062000187565b6200005c62000050620000a460201b60201c565b620000ac60201b60201c565b80600160006101000a81548173ffffffffffffffffffffffffffffffffffffffff021916908373ffffffffffffffffffffffffffffffffffffffff160217905550506200020c565b600033905090565b60008060009054906101000a900473ffffffffffffffffffffffffffffffffffffffff169050816000806101000a81548173ffffffffffffffffffffffffffffffffffffffff021916908373ffffffffffffffffffffffffffffffffffffffff1602179055508173ffffffffffffffffffffffffffffffffffffffff168173ffffffffffffffffffffffffffffffffffffffff167f8be0079c531659141344cd1fd0a4f28419497f9722a3daafe3b4186f6b6457e060405160405180910390a35050565b6000815190506200018181620001f2565b92915050565b600060208284031215620001a0576200019f620001ed565b5b6000620001b08482850162000170565b91505092915050565b6000620001c682620001cd565b9050919050565b600073ffffffffffffffffffffffffffffffffffffffff82169050919050565b600080fd5b620001fd81620001b9565b81146200020957600080fd5b50565b6122b6806200021c6000396000f3fe60806040526004361061011f5760003560e01c8063715018a6116100a0578063aa5a0c8211610064578063aa5a0c8214610452578063c2f79bf51461048f578063c717f920146104b8578063d858be5d146104e8578063f2fde38b146105255761011f565b8063715018a61461036757806385c8af351461037e5780638a59d847146103bb5780638da5cb5b146103e65780638f6dcb16146104115761011f565b806332670a8e116100e757806332670a8e146102485780633ab266a2146102855780633c9547b2146102c25780633ec57c5b146102ff578063420d93c11461033c5761011f565b806308113459146101245780630e14e2fc14610161578063131178ac1461019e5780631abe0b40146101ce5780632b0a2d2e1461020b575b600080fd5b34801561013057600080fd5b5061014b60048036038101906101469190611b57565b61054e565b6040516101589190611db3565b60405180910390f35b34801561016d57600080fd5b5061018860048036038101906101839190611b2a565b61076c565b6040516101959190611e29565b60405180910390f35b6101b860048036038101906101b39190611b97565b610784565b6040516101c59190611db3565b60405180910390f35b3480156101da57600080fd5b506101f560048036038101906101f09190611b97565b610a5d565b6040516102029190611db3565b60405180910390f35b34801561021757600080fd5b50610232600480360381019061022d9190611b97565b610bec565b60405161023f9190611d4d565b60405180910390f35b34801561025457600080fd5b5061026f600480360381019061026a9190611ad0565b610c43565b60405161027c9190611e29565b60405180910390f35b34801561029157600080fd5b506102ac60048036038101906102a79190611b2a565b610c5b565b6040516102b99190611d4d565b60405180910390f35b3480156102ce57600080fd5b506102e960048036038101906102e49190611bd7565b610c8e565b6040516102f69190611e29565b60405180910390f35b34801561030b57600080fd5b5061032660048036038101906103219190611b2a565b610ef1565b6040516103339190611d91565b60405180910390f35b34801561034857600080fd5b50610351610fb5565b60405161035e9190611dce565b60405180910390f35b34801561037357600080fd5b5061037c610fdb565b005b34801561038a57600080fd5b506103a560048036038101906103a09190611b2a565b611063565b6040516103b29190611e29565b60405180910390f35b3480156103c757600080fd5b506103d061107b565b6040516103dd9190611e29565b60405180910390f35b3480156103f257600080fd5b506103fb6111e2565b6040516104089190611d4d565b60405180910390f35b34801561041d57600080fd5b5061043860048036038101906104339190611b2a565b61120b565b604051610449959493929190611ecd565b60405180910390f35b34801561045e57600080fd5b5061047960048036038101906104749190611b2a565b61126b565b6040516104869190611e29565b60405180910390f35b34801561049b57600080fd5b506104b660048036038101906104b19190611b2a565b6112a6565b005b6104d260048036038101906104cd9190611b97565b611594565b6040516104df9190611db3565b60405180910390f35b3480156104f457600080fd5b5061050f600480360381019061050a9190611b2a565b6118b0565b60405161051c9190611e29565b60405180910390f35b34801561053157600080fd5b5061054c60048036038101906105479190611ad0565b6118cd565b005b6000336000600360008373ffffffffffffffffffffffffffffffffffffffff1673ffffffffffffffffffffffffffffffffffffffff1681526020019081526020016000205414156105df576064600360008373ffffffffffffffffffffffffffffffffffffffff1673ffffffffffffffffffffffffffffffffffffffff168152602001908152602001600020819055505b3373ffffffffffffffffffffffffffffffffffffffff166005600086815260200190815260200160002060009054906101000a900473ffffffffffffffffffffffffffffffffffffffff1673ffffffffffffffffffffffffffffffffffffffff16146106845783836040517f7d36816800000000000000000000000000000000000000000000000000000000815260040161067b929190611e44565b60405180910390fd5b6004600085815260200190815260200160002060405180602001604052808573ffffffffffffffffffffffffffffffffffffffff168152509080600181540180825580915050600190039060005260206000200160009091909190915060008201518160000160006101000a81548173ffffffffffffffffffffffffffffffffffffffff021916908373ffffffffffffffffffffffffffffffffffffffff16021790555050507fe96ddc8e1ac943b3b144abc6c8fa24de20b9ea07083e00759d6da54d794df91e846040516107599190611e29565b60405180910390a1600191505092915050565b60066020528060005260406000206000915090505481565b60003373ffffffffffffffffffffffffffffffffffffffff166005600084815260200190815260200160002060009054906101000a900473ffffffffffffffffffffffffffffffffffffffff1673ffffffffffffffffffffffffffffffffffffffff161461082957816040517f797f5de90000000000000000000000000000000000000000000000000000000081526004016108209190611e29565b60405180910390fd5b81600760008581526020019081526020016000205414156108835782826040517f42cac3fe00000000000000000000000000000000000000000000000000000000815260040161087a929190611e6d565b60405180910390fd5b6000600284815481106108995761089861218f565b5b90600052602060002090600402016002015490508034106108f35783816040517fcf4791810000000000000000000000000000000000000000000000000000000081526004016108ea929190611e6d565b60405180910390fd5b600160009054906101000a900473ffffffffffffffffffffffffffffffffffffffff1673ffffffffffffffffffffffffffffffffffffffff1663a9059cbb33836040518363ffffffff1660e01b8152600401610950929190611d68565b602060405180830381600087803b15801561096a57600080fd5b505af115801561097e573d6000803e3d6000fd5b505050506040513d601f19601f820116820180604052508101906109a29190611afd565b5082600285815481106109b8576109b761218f565b5b9060005260206000209060040201600101819055507f06168e40fac2576e22d73ab2e9efa79b4e7530dd3dd411ab7d8862d04be798a28460028681548110610a0357610a0261218f565b5b90600052602060002090600402016000015460028781548110610a2957610a2861218f565b5b906000526020600020906004020160010154604051610a4a93929190611e96565b60405180910390a1600191505092915050565b60008060028481548110610a7457610a7361218f565b5b90600052602060002090600402016040518060a00160405290816000820154815260200160018201548152602001600282015481526020016003820160009054906101000a900460ff161515151581526020016003820160019054906101000a900460ff161515151581525050905060018160600190151590811515815250506000600560008360000151815260200190815260200160002060009054906101000a900473ffffffffffffffffffffffffffffffffffffffff169050600160009054906101000a900473ffffffffffffffffffffffffffffffffffffffff1673ffffffffffffffffffffffffffffffffffffffff1663a9059cbb8284604001516040518363ffffffff1660e01b8152600401610b91929190611d68565b602060405180830381600087803b158015610bab57600080fd5b505af1158015610bbf573d6000803e3d6000fd5b505050506040513d601f19601f82011682018060405250810190610be39190611afd565b50505092915050565b60046020528160005260406000208181548110610c0857600080fd5b90600052602060002001600091509150508060000160009054906101000a900473ffffffffffffffffffffffffffffffffffffffff16905081565b60036020528060005260406000206000915090505481565b60056020528060005260406000206000915054906101000a900473ffffffffffffffffffffffffffffffffffffffff1681565b6000336000600360008373ffffffffffffffffffffffffffffffffffffffff1673ffffffffffffffffffffffffffffffffffffffff168152602001908152602001600020541415610d1f576064600360008373ffffffffffffffffffffffffffffffffffffffff1673ffffffffffffffffffffffffffffffffffffffff168152602001908152602001600020819055505b3373ffffffffffffffffffffffffffffffffffffffff166005600087815260200190815260200160002060009054906101000a900473ffffffffffffffffffffffffffffffffffffffff1673ffffffffffffffffffffffffffffffffffffffff1614610dc257846040517f665028ed000000000000000000000000000000000000000000000000000000008152600401610db99190611e29565b60405180910390fd5b60026040518060a0016040528087815260200186815260200185815260200160001515815260200160001515815250908060018154018082558091505060019003906000526020600020906004020160009091909190915060008201518160000155602082015181600101556040820151816002015560608201518160030160006101000a81548160ff02191690831515021790555060808201518160030160016101000a81548160ff021916908315150217905550505060006001600280549050610e8e9190612036565b90508460076000838152602001908152602001600020819055507f77d5bbaa1959f33c5de7724917a9cb0150bdde1bdbe056cd928f24ec723c5df681858888604051610edd9493929190611f20565b60405180910390a180925050509392505050565b606060086000838152602001908152602001600020805480602002602001604051908101604052809291908181526020016000905b82821015610faa578382906000526020600020016040518060200160405290816000820160009054906101000a900473ffffffffffffffffffffffffffffffffffffffff1673ffffffffffffffffffffffffffffffffffffffff1673ffffffffffffffffffffffffffffffffffffffff168152505081526020019060010190610f26565b505050509050919050565b600160009054906101000a900473ffffffffffffffffffffffffffffffffffffffff1681565b610fe36119c5565b73ffffffffffffffffffffffffffffffffffffffff166110016111e2565b73ffffffffffffffffffffffffffffffffffffffff1614611057576040517f08c379a000000000000000000000000000000000000000000000000000000000815260040161104e90611e09565b60405180910390fd5b61106160006119cd565b565b60076020528060005260406000206000915090505481565b6000336000600360008373ffffffffffffffffffffffffffffffffffffffff1673ffffffffffffffffffffffffffffffffffffffff16815260200190815260200160002054141561110c576064600360008373ffffffffffffffffffffffffffffffffffffffff1673ffffffffffffffffffffffffffffffffffffffff168152602001908152602001600020819055505b60006001600a5461111d9190611faf565b9050336005600083815260200190815260200160002060006101000a81548173ffffffffffffffffffffffffffffffffffffffff021916908373ffffffffffffffffffffffffffffffffffffffff16021790555060016009600083815260200190815260200160002081905550606460066000838152602001908152602001600020819055507f015c069c0e6438bd2d98e0c7b6526d4f7596120b3a6ac20fd43f2aa00450b813816040516111d29190611e29565b60405180910390a1809250505090565b60008060009054906101000a900473ffffffffffffffffffffffffffffffffffffffff16905090565b6002818154811061121b57600080fd5b90600052602060002090600402016000915090508060000154908060010154908060020154908060030160009054906101000a900460ff16908060030160019054906101000a900460ff16905085565b60006009600083815260200190815260200160002054600660008481526020019081526020016000205461129f9190612005565b9050919050565b336000600360008373ffffffffffffffffffffffffffffffffffffffff1673ffffffffffffffffffffffffffffffffffffffff168152602001908152602001600020541415611335576064600360008373ffffffffffffffffffffffffffffffffffffffff1673ffffffffffffffffffffffffffffffffffffffff168152602001908152602001600020819055505b6000805b60046000858152602001908152602001600020805490508110156113f9573373ffffffffffffffffffffffffffffffffffffffff166004600086815260200190815260200160002082815481106113935761139261218f565b5b9060005260206000200160000160009054906101000a900473ffffffffffffffffffffffffffffffffffffffff1673ffffffffffffffffffffffffffffffffffffffff1614156113e657600191506113f9565b80806113f1906120e8565b915050611339565b5060008114156114425782336040517fb0cdf7e7000000000000000000000000000000000000000000000000000000008152600401611439929190611e44565b60405180910390fd5b6008600084815260200190815260200160002060405180602001604052803373ffffffffffffffffffffffffffffffffffffffff168152509080600181540180825580915050600190039060005260206000200160009091909190915060008201518160000160006101000a81548173ffffffffffffffffffffffffffffffffffffffff021916908373ffffffffffffffffffffffffffffffffffffffff1602179055505050600160096000858152602001908152602001600020546115089190611faf565b60096000858152602001908152602001600020819055506064600660008581526020019081526020016000205461153f9190611faf565b60066000858152602001908152602001600020819055507facf469d13776cbb2c2ad5f2817a7797650091c8559a1d3bba51d3ef280b72c778333604051611587929190611e44565b60405180910390a1505050565b600060011515600283815481106115ae576115ad61218f565b5b906000526020600020906004020160030160009054906101000a900460ff161515141561161257816040517ff57a973d0000000000000000000000000000000000000000000000000000000081526004016116099190611e29565b60405180910390fd5b3373ffffffffffffffffffffffffffffffffffffffff166005600085815260200190815260200160002060009054906101000a900473ffffffffffffffffffffffffffffffffffffffff1673ffffffffffffffffffffffffffffffffffffffff1614156116b657816040517fa6e0c61f0000000000000000000000000000000000000000000000000000000081526004016116ad9190611e29565b60405180910390fd5b600282815481106116ca576116c961218f565b5b9060005260206000209060040201600201543410156117225781346040517f8fde25d0000000000000000000000000000000000000000000000000000000008152600401611719929190611e6d565b60405180910390fd5b600160009054906101000a900473ffffffffffffffffffffffffffffffffffffffff1673ffffffffffffffffffffffffffffffffffffffff1663a9059cbb33600285815481106117755761177461218f565b5b9060005260206000209060040201600201546040518363ffffffff1660e01b81526004016117a4929190611d68565b602060405180830381600087803b1580156117be57600080fd5b505af11580156117d2573d6000803e3d6000fd5b505050506040513d601f19601f820116820180604052508101906117f69190611afd565b50826002838154811061180c5761180b61218f565b5b9060005260206000209060040201600101819055507f06168e40fac2576e22d73ab2e9efa79b4e7530dd3dd411ab7d8862d04be798a282600284815481106118575761185661218f565b5b9060005260206000209060040201600001546002858154811061187d5761187c61218f565b5b90600052602060002090600402016001015460405161189e93929190611e96565b60405180910390a16001905092915050565b600060096000838152602001908152602001600020549050919050565b6118d56119c5565b73ffffffffffffffffffffffffffffffffffffffff166118f36111e2565b73ffffffffffffffffffffffffffffffffffffffff1614611949576040517f08c379a000000000000000000000000000000000000000000000000000000000815260040161194090611e09565b60405180910390fd5b600073ffffffffffffffffffffffffffffffffffffffff168173ffffffffffffffffffffffffffffffffffffffff1614156119b9576040517f08c379a00000000000000000000000000000000000000000000000000000000081526004016119b090611de9565b60405180910390fd5b6119c2816119cd565b50565b600033905090565b60008060009054906101000a900473ffffffffffffffffffffffffffffffffffffffff169050816000806101000a81548173ffffffffffffffffffffffffffffffffffffffff021916908373ffffffffffffffffffffffffffffffffffffffff1602179055508173ffffffffffffffffffffffffffffffffffffffff168173ffffffffffffffffffffffffffffffffffffffff167f8be0079c531659141344cd1fd0a4f28419497f9722a3daafe3b4186f6b6457e060405160405180910390a35050565b600081359050611aa08161223b565b92915050565b600081519050611ab581612252565b92915050565b600081359050611aca81612269565b92915050565b600060208284031215611ae657611ae56121be565b5b6000611af484828501611a91565b91505092915050565b600060208284031215611b1357611b126121be565b5b6000611b2184828501611aa6565b91505092915050565b600060208284031215611b4057611b3f6121be565b5b6000611b4e84828501611abb565b91505092915050565b60008060408385031215611b6e57611b6d6121be565b5b6000611b7c85828601611abb565b9250506020611b8d85828601611a91565b9150509250929050565b60008060408385031215611bae57611bad6121be565b5b6000611bbc85828601611abb565b9250506020611bcd85828601611abb565b9150509250929050565b600080600060608486031215611bf057611bef6121be565b5b6000611bfe86828701611abb565b9350506020611c0f86828701611abb565b9250506040611c2086828701611abb565b9150509250925092565b6000611c368383611d22565b60208301905092915050565b611c4b8161206a565b82525050565b611c5a8161206a565b82525050565b6000611c6b82611f75565b611c758185611f8d565b9350611c8083611f65565b8060005b83811015611cb1578151611c988882611c2a565b9750611ca383611f80565b925050600181019050611c84565b5085935050505092915050565b611cc78161207c565b82525050565b611cd6816120b2565b82525050565b6000611ce9602683611f9e565b9150611cf4826121c3565b604082019050919050565b6000611d0c602083611f9e565b9150611d1782612212565b602082019050919050565b602082016000820151611d386000850182611c42565b50505050565b611d47816120a8565b82525050565b6000602082019050611d626000830184611c51565b92915050565b6000604082019050611d7d6000830185611c51565b611d8a6020830184611d3e565b9392505050565b60006020820190508181036000830152611dab8184611c60565b905092915050565b6000602082019050611dc86000830184611cbe565b92915050565b6000602082019050611de36000830184611ccd565b92915050565b60006020820190508181036000830152611e0281611cdc565b9050919050565b60006020820190508181036000830152611e2281611cff565b9050919050565b6000602082019050611e3e6000830184611d3e565b92915050565b6000604082019050611e596000830185611d3e565b611e666020830184611c51565b9392505050565b6000604082019050611e826000830185611d3e565b611e8f6020830184611d3e565b9392505050565b6000606082019050611eab6000830186611d3e565b611eb86020830185611d3e565b611ec56040830184611d3e565b949350505050565b600060a082019050611ee26000830188611d3e565b611eef6020830187611d3e565b611efc6040830186611d3e565b611f096060830185611cbe565b611f166080830184611cbe565b9695505050505050565b6000608082019050611f356000830187611d3e565b611f426020830186611d3e565b611f4f6040830185611d3e565b611f5c6060830184611d3e565b95945050505050565b6000819050602082019050919050565b600081519050919050565b6000602082019050919050565b600082825260208201905092915050565b600082825260208201905092915050565b6000611fba826120a8565b9150611fc5836120a8565b9250827fffffffffffffffffffffffffffffffffffffffffffffffffffffffffffffffff03821115611ffa57611ff9612131565b5b828201905092915050565b6000612010826120a8565b915061201b836120a8565b92508261202b5761202a612160565b5b828204905092915050565b6000612041826120a8565b915061204c836120a8565b92508282101561205f5761205e612131565b5b828203905092915050565b600061207582612088565b9050919050565b60008115159050919050565b600073ffffffffffffffffffffffffffffffffffffffff82169050919050565b6000819050919050565b60006120bd826120c4565b9050919050565b60006120cf826120d6565b9050919050565b60006120e182612088565b9050919050565b60006120f3826120a8565b91507fffffffffffffffffffffffffffffffffffffffffffffffffffffffffffffffff82141561212657612125612131565b5b600182019050919050565b7f4e487b7100000000000000000000000000000000000000000000000000000000600052601160045260246000fd5b7f4e487b7100000000000000000000000000000000000000000000000000000000600052601260045260246000fd5b7f4e487b7100000000000000000000000000000000000000000000000000000000600052603260045260246000fd5b600080fd5b7f4f776e61626c653a206e6577206f776e657220697320746865207a65726f206160008201527f6464726573730000000000000000000000000000000000000000000000000000602082015250565b7f4f776e61626c653a2063616c6c6572206973206e6f7420746865206f776e6572600082015250565b6122448161206a565b811461224f57600080fd5b50565b61225b8161207c565b811461226657600080fd5b50565b612272816120a8565b811461227d57600080fd5b5056fea2646970667358221220d102068afe3c326ef0f9b0d9364833e3e03a778081f96dd153d3553325117c1164736f6c63430008070033",
    "linkReferences": {},
    "deployedLinkReferences": {}
}